{
  "address": "0xe7f1725E7734CE288F8367e1Bb143E90bb3F0512",
  "abi": [
    {
      "inputs": [
        {
          "internalType": "address[3]",
          "name": "daoAddresses",
          "type": "address[3]"
        },
        {
          "internalType": "string",
          "name": "_gitUrl",
          "type": "string"
        },
        {
          "internalType": "string",
          "name": "_gitId",
          "type": "string"
        }
      ],
      "name": "createGitDAO",
      "outputs": [
        {
          "internalType": "contract GitDAO",
          "name": "",
          "type": "address"
        }
      ],
      "stateMutability": "nonpayable",
      "type": "function"
    }
  ],
  "transactionHash": "0x8386746e38fe9c1fdb09846b6bbb3df9c8fc0928bf7d3c6ed54e249ed0eb6e5e",
  "args": [],
  "numDeployments": 1,
  "solcInputHash": "74e87492c10aaab055e443ac29a3f65f",
  "bytecode": "0x608060405234801561001057600080fd5b50612305806100206000396000f3fe60806040523480156200001157600080fd5b50600436106200002e5760003560e01c80630dc5f51c1462000033575b600080fd5b6200005160048036038101906200004b919062000447565b62000069565b6040516200006091906200054c565b60405180910390f35b6000808460006003811062000083576200008262000569565b5b6020020151856001600381106200009f576200009e62000569565b5b602002015186600260038110620000bb57620000ba62000569565b5b60200201518686604051620000d09062000195565b620000e09594939291906200063c565b604051809103906000f080158015620000fd573d6000803e3d6000fd5b5090508073ffffffffffffffffffffffffffffffffffffffff1663f2fde38b8660016003811062000133576200013262000569565b5b60200201516040518263ffffffff1660e01b8152600401620001569190620006a7565b600060405180830381600087803b1580156200017157600080fd5b505af115801562000186573d6000803e3d6000fd5b50505050809150509392505050565b611c0b80620006c583390190565b6000604051905090565b600080fd5b600080fd5b600080fd5b6000601f19601f8301169050919050565b7f4e487b7100000000000000000000000000000000000000000000000000000000600052604160045260246000fd5b6200020782620001bc565b810181811067ffffffffffffffff82111715620002295762000228620001cd565b5b80604052505050565b60006200023e620001a3565b90506200024c8282620001fc565b919050565b600067ffffffffffffffff8211156200026f576200026e620001cd565b5b602082029050919050565b600080fd5b600073ffffffffffffffffffffffffffffffffffffffff82169050919050565b6000620002ac826200027f565b9050919050565b620002be816200029f565b8114620002ca57600080fd5b50565b600081359050620002de81620002b3565b92915050565b6000620002fb620002f58462000251565b62000232565b905080602084028301858111156200031857620003176200027a565b5b835b81811015620003455780620003308882620002cd565b8452602084019350506020810190506200031a565b5050509392505050565b600082601f830112620003675762000366620001b7565b5b600362000376848285620002e4565b91505092915050565b600080fd5b600067ffffffffffffffff821115620003a257620003a1620001cd565b5b620003ad82620001bc565b9050602081019050919050565b82818337600083830152505050565b6000620003e0620003da8462000384565b62000232565b905082815260208101848484011115620003ff57620003fe6200037f565b5b6200040c848285620003ba565b509392505050565b600082601f8301126200042c576200042b620001b7565b5b81356200043e848260208601620003c9565b91505092915050565b600080600060a08486031215620004635762000462620001ad565b5b600062000473868287016200034f565b935050606084013567ffffffffffffffff811115620004975762000496620001b2565b5b620004a58682870162000414565b925050608084013567ffffffffffffffff811115620004c957620004c8620001b2565b5b620004d78682870162000414565b9150509250925092565b6000819050919050565b60006200050c6200050662000500846200027f565b620004e1565b6200027f565b9050919050565b60006200052082620004eb565b9050919050565b6000620005348262000513565b9050919050565b620005468162000527565b82525050565b60006020820190506200056360008301846200053b565b92915050565b7f4e487b7100000000000000000000000000000000000000000000000000000000600052603260045260246000fd5b620005a3816200029f565b82525050565b600081519050919050565b600082825260208201905092915050565b60005b83811015620005e5578082015181840152602081019050620005c8565b83811115620005f5576000848401525b50505050565b60006200060882620005a9565b620006148185620005b4565b935062000626818560208601620005c5565b6200063181620001bc565b840191505092915050565b600060a08201905062000653600083018862000598565b62000662602083018762000598565b62000671604083018662000598565b8181036060830152620006858185620005fb565b905081810360808301526200069b8184620005fb565b90509695505050505050565b6000602082019050620006be600083018462000598565b9291505056fe60806040523480156200001157600080fd5b5060405162001c0b38038062001c0b8339818101604052810190620000379190620004dd565b620000576200004b6200015f60201b60201c565b6200016760201b60201c565b84600160000160006101000a81548173ffffffffffffffffffffffffffffffffffffffff021916908373ffffffffffffffffffffffffffffffffffffffff160217905550836001800160006101000a81548173ffffffffffffffffffffffffffffffffffffffff021916908373ffffffffffffffffffffffffffffffffffffffff16021790555082600160020160006101000a81548173ffffffffffffffffffffffffffffffffffffffff021916908373ffffffffffffffffffffffffffffffffffffffff16021790555080600590805190602001906200013a9291906200022b565b508160049080519060200190620001539291906200022b565b50505050505062000608565b600033905090565b60008060009054906101000a900473ffffffffffffffffffffffffffffffffffffffff169050816000806101000a81548173ffffffffffffffffffffffffffffffffffffffff021916908373ffffffffffffffffffffffffffffffffffffffff1602179055508173ffffffffffffffffffffffffffffffffffffffff168173ffffffffffffffffffffffffffffffffffffffff167f8be0079c531659141344cd1fd0a4f28419497f9722a3daafe3b4186f6b6457e060405160405180910390a35050565b8280546200023990620005d2565b90600052602060002090601f0160209004810192826200025d5760008555620002a9565b82601f106200027857805160ff1916838001178555620002a9565b82800160010185558215620002a9579182015b82811115620002a85782518255916020019190600101906200028b565b5b509050620002b89190620002bc565b5090565b5b80821115620002d7576000816000905550600101620002bd565b5090565b6000604051905090565b600080fd5b600080fd5b600073ffffffffffffffffffffffffffffffffffffffff82169050919050565b60006200031c82620002ef565b9050919050565b6200032e816200030f565b81146200033a57600080fd5b50565b6000815190506200034e8162000323565b92915050565b600080fd5b600080fd5b6000601f19601f8301169050919050565b7f4e487b7100000000000000000000000000000000000000000000000000000000600052604160045260246000fd5b620003a9826200035e565b810181811067ffffffffffffffff82111715620003cb57620003ca6200036f565b5b80604052505050565b6000620003e0620002db565b9050620003ee82826200039e565b919050565b600067ffffffffffffffff8211156200041157620004106200036f565b5b6200041c826200035e565b9050602081019050919050565b60005b83811015620004495780820151818401526020810190506200042c565b8381111562000459576000848401525b50505050565b6000620004766200047084620003f3565b620003d4565b90508281526020810184848401111562000495576200049462000359565b5b620004a284828562000429565b509392505050565b600082601f830112620004c257620004c162000354565b5b8151620004d48482602086016200045f565b91505092915050565b600080600080600060a08688031215620004fc57620004fb620002e5565b5b60006200050c888289016200033d565b95505060206200051f888289016200033d565b945050604062000532888289016200033d565b935050606086015167ffffffffffffffff811115620005565762000555620002ea565b5b6200056488828901620004aa565b925050608086015167ffffffffffffffff811115620005885762000587620002ea565b5b6200059688828901620004aa565b9150509295509295909350565b7f4e487b7100000000000000000000000000000000000000000000000000000000600052602260045260246000fd5b60006002820490506001821680620005eb57607f821691505b60208210811415620006025762000601620005a3565b5b50919050565b6115f380620006186000396000f3fe608060405234801561001057600080fd5b50600436106100935760003560e01c8063715018a611610066578063715018a6146101105780638da5cb5b1461011a578063e362fa4714610138578063f2fde38b14610154578063fa382f871461017057610093565b806318aa9f1e146100985780632a98f4aa146100b6578063377d75b0146100d45780634162169f146100f0575b600080fd5b6100a061018e565b6040516100ad9190610f52565b60405180910390f35b6100be61021c565b6040516100cb9190610f52565b60405180910390f35b6100ee60048036038101906100e9919061100d565b6102aa565b005b6100f8610617565b6040516101079392919061105c565b60405180910390f35b61011861068f565b005b610122610717565b60405161012f9190611093565b60405180910390f35b610152600480360381019061014d91906110ae565b610740565b005b61016e60048036038101906101699190611115565b610a15565b005b610178610b0d565b6040516101859190611193565b60405180910390f35b6004805461019b906111dd565b80601f01602080910402602001604051908101604052809291908181526020018280546101c7906111dd565b80156102145780601f106101e957610100808354040283529160200191610214565b820191906000526020600020905b8154815290600101906020018083116101f757829003601f168201915b505050505081565b60058054610229906111dd565b80601f0160208091040260200160405190810160405280929190818152602001828054610255906111dd565b80156102a25780601f10610277576101008083540402835291602001916102a2565b820191906000526020600020905b81548152906001019060200180831161028557829003601f168201915b505050505081565b6102b2610c29565b73ffffffffffffffffffffffffffffffffffffffff166102d0610717565b73ffffffffffffffffffffffffffffffffffffffff1614610326576040517f08c379a000000000000000000000000000000000000000000000000000000000815260040161031d9061125b565b60405180910390fd5b6103656040518060400160405280600a81526020017f4f726967696e3a2025730000000000000000000000000000000000000000000081525032610c31565b6103a46040518060400160405280600a81526020017f53656e6465723a2025730000000000000000000000000000000000000000000081525033610c31565b6103ea6040518060400160405280600981526020017f4f776e65723a20257300000000000000000000000000000000000000000000008152506103e5610717565b610c31565b600073ffffffffffffffffffffffffffffffffffffffff168273ffffffffffffffffffffffffffffffffffffffff16141561045a576040517f08c379a0000000000000000000000000000000000000000000000000000000008152600401610451906112c7565b60405180910390fd5b6000600160020160009054906101000a900473ffffffffffffffffffffffffffffffffffffffff16905061054b6040518060400160405280601281526020017f42616c616e6365204f66207468697320257300000000000000000000000000008152508273ffffffffffffffffffffffffffffffffffffffff166370a08231306040518263ffffffff1660e01b81526004016104f69190611093565b60206040518083038186803b15801561050e57600080fd5b505afa158015610522573d6000803e3d6000fd5b505050506040513d601f19601f8201168201806040525081019061054691906112fc565b610ccd565b8073ffffffffffffffffffffffffffffffffffffffff1663a9059cbb84846040518363ffffffff1660e01b8152600401610586929190611338565b602060405180830381600087803b1580156105a057600080fd5b505af11580156105b4573d6000803e3d6000fd5b505050506040513d601f19601f820116820180604052508101906105d89190611399565b507fe366ef68d2c0620e9e4c5074fd7ad0ce6739b65287f9c2d09b7d002da556879b838360405161060a929190611338565b60405180910390a1505050565b60018060000160009054906101000a900473ffffffffffffffffffffffffffffffffffffffff16908060010160009054906101000a900473ffffffffffffffffffffffffffffffffffffffff16908060020160009054906101000a900473ffffffffffffffffffffffffffffffffffffffff16905083565b610697610c29565b73ffffffffffffffffffffffffffffffffffffffff166106b5610717565b73ffffffffffffffffffffffffffffffffffffffff161461070b576040517f08c379a00000000000000000000000000000000000000000000000000000000081526004016107029061125b565b60405180910390fd5b6107156000610d69565b565b60008060009054906101000a900473ffffffffffffffffffffffffffffffffffffffff16905090565b610748610c29565b73ffffffffffffffffffffffffffffffffffffffff16610766610717565b73ffffffffffffffffffffffffffffffffffffffff16146107bc576040517f08c379a00000000000000000000000000000000000000000000000000000000081526004016107b39061125b565b60405180910390fd5b600073ffffffffffffffffffffffffffffffffffffffff168473ffffffffffffffffffffffffffffffffffffffff16141561082c576040517f08c379a0000000000000000000000000000000000000000000000000000000008152600401610823906112c7565b60405180910390fd5b60008190508073ffffffffffffffffffffffffffffffffffffffff166323b872dd86600160000160009054906101000a900473ffffffffffffffffffffffffffffffffffffffff16878761088091906113f5565b6040518463ffffffff1660e01b815260040161089e9392919061144f565b602060405180830381600087803b1580156108b857600080fd5b505af11580156108cc573d6000803e3d6000fd5b505050506040513d601f19601f820116820180604052508101906108f09190611399565b506000600160020160009054906101000a900473ffffffffffffffffffffffffffffffffffffffff1690508073ffffffffffffffffffffffffffffffffffffffff166323b872dd87600160000160009054906101000a900473ffffffffffffffffffffffffffffffffffffffff16886040518463ffffffff1660e01b815260040161097d9392919061144f565b602060405180830381600087803b15801561099757600080fd5b505af11580156109ab573d6000803e3d6000fd5b505050506040513d601f19601f820116820180604052508101906109cf9190611399565b507f956be53b90089a396563fd1ee00641d05e8db27154914e5d75f128a73ab251c786868686604051610a059493929190611486565b60405180910390a1505050505050565b610a1d610c29565b73ffffffffffffffffffffffffffffffffffffffff16610a3b610717565b73ffffffffffffffffffffffffffffffffffffffff1614610a91576040517f08c379a0000000000000000000000000000000000000000000000000000000008152600401610a889061125b565b60405180910390fd5b600073ffffffffffffffffffffffffffffffffffffffff168173ffffffffffffffffffffffffffffffffffffffff161415610b01576040517f08c379a0000000000000000000000000000000000000000000000000000000008152600401610af89061153d565b60405180910390fd5b610b0a81610d69565b50565b610b15610e56565b60016040518060600160405290816000820160009054906101000a900473ffffffffffffffffffffffffffffffffffffffff1673ffffffffffffffffffffffffffffffffffffffff1673ffffffffffffffffffffffffffffffffffffffff1681526020016001820160009054906101000a900473ffffffffffffffffffffffffffffffffffffffff1673ffffffffffffffffffffffffffffffffffffffff1673ffffffffffffffffffffffffffffffffffffffff1681526020016002820160009054906101000a900473ffffffffffffffffffffffffffffffffffffffff1673ffffffffffffffffffffffffffffffffffffffff1673ffffffffffffffffffffffffffffffffffffffff1681525050905090565b600033905090565b610cc98282604051602401610c4792919061155d565b6040516020818303038152906040527f319af333000000000000000000000000000000000000000000000000000000007bffffffffffffffffffffffffffffffffffffffffffffffffffffffff19166020820180517bffffffffffffffffffffffffffffffffffffffffffffffffffffffff8381831617835250505050610e2d565b5050565b610d658282604051602401610ce392919061158d565b6040516020818303038152906040527f9710a9d0000000000000000000000000000000000000000000000000000000007bffffffffffffffffffffffffffffffffffffffffffffffffffffffff19166020820180517bffffffffffffffffffffffffffffffffffffffffffffffffffffffff8381831617835250505050610e2d565b5050565b60008060009054906101000a900473ffffffffffffffffffffffffffffffffffffffff169050816000806101000a81548173ffffffffffffffffffffffffffffffffffffffff021916908373ffffffffffffffffffffffffffffffffffffffff1602179055508173ffffffffffffffffffffffffffffffffffffffff168173ffffffffffffffffffffffffffffffffffffffff167f8be0079c531659141344cd1fd0a4f28419497f9722a3daafe3b4186f6b6457e060405160405180910390a35050565b60008151905060006a636f6e736f6c652e6c6f679050602083016000808483855afa5050505050565b6040518060600160405280600073ffffffffffffffffffffffffffffffffffffffff168152602001600073ffffffffffffffffffffffffffffffffffffffff168152602001600073ffffffffffffffffffffffffffffffffffffffff1681525090565b600081519050919050565b600082825260208201905092915050565b60005b83811015610ef3578082015181840152602081019050610ed8565b83811115610f02576000848401525b50505050565b6000601f19601f8301169050919050565b6000610f2482610eb9565b610f2e8185610ec4565b9350610f3e818560208601610ed5565b610f4781610f08565b840191505092915050565b60006020820190508181036000830152610f6c8184610f19565b905092915050565b600080fd5b600073ffffffffffffffffffffffffffffffffffffffff82169050919050565b6000610fa482610f79565b9050919050565b610fb481610f99565b8114610fbf57600080fd5b50565b600081359050610fd181610fab565b92915050565b6000819050919050565b610fea81610fd7565b8114610ff557600080fd5b50565b60008135905061100781610fe1565b92915050565b6000806040838503121561102457611023610f74565b5b600061103285828601610fc2565b925050602061104385828601610ff8565b9150509250929050565b61105681610f99565b82525050565b6000606082019050611071600083018661104d565b61107e602083018561104d565b61108b604083018461104d565b949350505050565b60006020820190506110a8600083018461104d565b92915050565b600080600080608085870312156110c8576110c7610f74565b5b60006110d687828801610fc2565b94505060206110e787828801610ff8565b93505060406110f887828801610ff8565b925050606061110987828801610fc2565b91505092959194509250565b60006020828403121561112b5761112a610f74565b5b600061113984828501610fc2565b91505092915050565b61114b81610f99565b82525050565b6060820160008201516111676000850182611142565b50602082015161117a6020850182611142565b50604082015161118d6040850182611142565b50505050565b60006060820190506111a86000830184611151565b92915050565b7f4e487b7100000000000000000000000000000000000000000000000000000000600052602260045260246000fd5b600060028204905060018216806111f557607f821691505b60208210811415611209576112086111ae565b5b50919050565b7f4f776e61626c653a2063616c6c6572206973206e6f7420746865206f776e6572600082015250565b6000611245602083610ec4565b91506112508261120f565b602082019050919050565b6000602082019050818103600083015261127481611238565b9050919050565b7f555345525f444f45535f4e4f545f455849535453000000000000000000000000600082015250565b60006112b1601483610ec4565b91506112bc8261127b565b602082019050919050565b600060208201905081810360008301526112e0816112a4565b9050919050565b6000815190506112f681610fe1565b92915050565b60006020828403121561131257611311610f74565b5b6000611320848285016112e7565b91505092915050565b61133281610fd7565b82525050565b600060408201905061134d600083018561104d565b61135a6020830184611329565b9392505050565b60008115159050919050565b61137681611361565b811461138157600080fd5b50565b6000815190506113938161136d565b92915050565b6000602082840312156113af576113ae610f74565b5b60006113bd84828501611384565b91505092915050565b7f4e487b7100000000000000000000000000000000000000000000000000000000600052601160045260246000fd5b600061140082610fd7565b915061140b83610fd7565b9250817fffffffffffffffffffffffffffffffffffffffffffffffffffffffffffffffff0483118215151615611444576114436113c6565b5b828202905092915050565b6000606082019050611464600083018661104d565b611471602083018561104d565b61147e6040830184611329565b949350505050565b600060808201905061149b600083018761104d565b6114a86020830186611329565b6114b56040830185611329565b6114c2606083018461104d565b95945050505050565b7f4f776e61626c653a206e6577206f776e657220697320746865207a65726f206160008201527f6464726573730000000000000000000000000000000000000000000000000000602082015250565b6000611527602683610ec4565b9150611532826114cb565b604082019050919050565b600060208201905081810360008301526115568161151a565b9050919050565b600060408201905081810360008301526115778185610f19565b9050611586602083018461104d565b9392505050565b600060408201905081810360008301526115a78185610f19565b90506115b66020830184611329565b939250505056fea26469706673582212207f177f43ee5ccf0e9cf9be23e660b586149fe4fcedda64c461bb9cd9a5055cfc64736f6c63430008090033a264697066735822122065ee980d50bca8daf821ad5a77a8710a22e19227d25451d667ec79fde298bb8f64736f6c63430008090033",
  "devdoc": {
    "kind": "dev",
    "methods": {},
    "version": 1
  },
  "userdoc": {
    "kind": "user",
    "methods": {},
    "version": 1
  },
  "storageLayout": {
    "storage": [],
    "types": null
  }
}