{
  "address": "0x9fE46736679d2D9a65F0992F2272dE9f3c7fa6e0",
  "abi": [
    {
      "inputs": [
        {
          "internalType": "address",
          "name": "_admin",
          "type": "address"
        },
        {
          "internalType": "address",
          "name": "_daoTokenFactory",
          "type": "address"
        },
        {
          "internalType": "address",
          "name": "_createDAOContract",
          "type": "address"
        }
      ],
      "stateMutability": "nonpayable",
      "type": "constructor"
    },
    {
      "inputs": [],
      "name": "admin",
      "outputs": [
        {
          "internalType": "address",
          "name": "",
          "type": "address"
        }
      ],
      "stateMutability": "view",
      "type": "function"
    },
    {
      "inputs": [
        {
          "internalType": "string",
          "name": "_daoTokenName",
          "type": "string"
        },
        {
          "internalType": "string",
          "name": "_daoTokenSymbol",
          "type": "string"
        },
        {
          "internalType": "uint256",
          "name": "_daoTokenSupply",
          "type": "uint256"
        },
        {
          "internalType": "uint256",
          "name": "_minDelay",
          "type": "uint256"
        },
        {
          "internalType": "uint256",
          "name": "_quorumPercentage",
          "type": "uint256"
        },
        {
          "internalType": "uint256",
          "name": "_votingPeriod",
          "type": "uint256"
        },
        {
          "internalType": "uint256",
          "name": "_votingDelay",
          "type": "uint256"
        }
      ],
      "name": "createDAO",
      "outputs": [],
      "stateMutability": "nonpayable",
      "type": "function"
    },
    {
      "inputs": [],
      "name": "createDAOContract",
      "outputs": [
        {
          "internalType": "address",
          "name": "",
          "type": "address"
        }
      ],
      "stateMutability": "view",
      "type": "function"
    },
    {
      "inputs": [],
      "name": "daoTokenFactory",
      "outputs": [
        {
          "internalType": "address",
          "name": "",
          "type": "address"
        }
      ],
      "stateMutability": "view",
      "type": "function"
    },
    {
      "inputs": [
        {
          "internalType": "address",
          "name": "",
          "type": "address"
        },
        {
          "internalType": "uint256",
          "name": "",
          "type": "uint256"
        }
      ],
      "name": "userDaos",
      "outputs": [
        {
          "internalType": "address",
          "name": "daoToken",
          "type": "address"
        },
        {
          "internalType": "address",
          "name": "daoTimelock",
          "type": "address"
        },
        {
          "internalType": "address",
          "name": "dao",
          "type": "address"
        }
      ],
      "stateMutability": "view",
      "type": "function"
    }
  ],
  "transactionHash": "0x0cb7491e715af6ab32d5c7ff641747dab709971e04a69738b6062b1f9d1676b7",
  "args": [
    "0xf39Fd6e51aad88F6F4ce6aB8827279cffFb92266",
    "0x5FbDB2315678afecb367f032d93F642f64180aa3",
    "0xe7f1725E7734CE288F8367e1Bb143E90bb3F0512"
  ],
  "numDeployments": 1,
  "solcInputHash": "e08d74de8ca47f70a5b2a6bb2ff1355b",
  "bytecode": "0x60806040523480156200001157600080fd5b50604051620044073803806200440783398181016040528101906200003791906200016c565b826000806101000a81548173ffffffffffffffffffffffffffffffffffffffff021916908373ffffffffffffffffffffffffffffffffffffffff16021790555081600160006101000a81548173ffffffffffffffffffffffffffffffffffffffff021916908373ffffffffffffffffffffffffffffffffffffffff16021790555080600260006101000a81548173ffffffffffffffffffffffffffffffffffffffff021916908373ffffffffffffffffffffffffffffffffffffffff160217905550505050620001c8565b600080fd5b600073ffffffffffffffffffffffffffffffffffffffff82169050919050565b6000620001348262000107565b9050919050565b620001468162000127565b81146200015257600080fd5b50565b60008151905062000166816200013b565b92915050565b60008060006060848603121562000188576200018762000102565b5b6000620001988682870162000155565b9350506020620001ab8682870162000155565b9250506040620001be8682870162000155565b9150509250925092565b61422f80620001d86000396000f3fe60806040523480156200001157600080fd5b50600436106200005e5760003560e01c80636f97bb6c1462000063578063704d062e1462000083578063750e32e614620000bb578063e9b3ac9514620000dd578063f851a44014620000ff575b600080fd5b6200008160048036038101906200007b919062000807565b62000121565b005b620000a160048036038101906200009b91906200095d565b62000530565b604051620000b293929190620009b5565b60405180910390f35b620000c5620005d8565b604051620000d49190620009f2565b60405180910390f35b620000e7620005fe565b604051620000f69190620009f2565b60405180910390f35b6200010962000624565b604051620001189190620009f2565b60405180910390f35b6000600160009054906101000a900473ffffffffffffffffffffffffffffffffffffffff16905060008173ffffffffffffffffffffffffffffffffffffffff1663e328bae48a8a8a6040518463ffffffff1660e01b8152600401620001899392919062000ab3565b602060405180830381600087803b158015620001a457600080fd5b505af1158015620001b9573d6000803e3d6000fd5b505050506040513d601f19601f82011682018060405250810190620001df919062000b15565b9050600086600067ffffffffffffffff81111562000202576200020162000685565b5b604051908082528060200260200182016040528015620002315781602001602082028036833780820191505090505b50600067ffffffffffffffff81111562000250576200024f62000685565b5b6040519080825280602002602001820160405280156200027f5781602001602082028036833780820191505090505b506040516200028e9062000648565b6200029c9392919062000c15565b604051809103906000f080158015620002b9573d6000803e3d6000fd5b5090506000600260009054906101000a900473ffffffffffffffffffffffffffffffffffffffff16905060008173ffffffffffffffffffffffffffffffffffffffff1663a561a30585858b8b8b6040518663ffffffff1660e01b81526004016200032895949392919062000c60565b602060405180830381600087803b1580156200034357600080fd5b505af115801562000358573d6000803e3d6000fd5b505050506040513d601f19601f820116820180604052508101906200037e919062000b15565b90506000600360003373ffffffffffffffffffffffffffffffffffffffff1673ffffffffffffffffffffffffffffffffffffffff16815260200190815260200160002090508060405180606001604052808773ffffffffffffffffffffffffffffffffffffffff1681526020018673ffffffffffffffffffffffffffffffffffffffff1681526020018473ffffffffffffffffffffffffffffffffffffffff16815250908060018154018082558091505060019003906000526020600020906003020160009091909190915060008201518160000160006101000a81548173ffffffffffffffffffffffffffffffffffffffff021916908373ffffffffffffffffffffffffffffffffffffffff16021790555060208201518160010160006101000a81548173ffffffffffffffffffffffffffffffffffffffff021916908373ffffffffffffffffffffffffffffffffffffffff16021790555060408201518160020160006101000a81548173ffffffffffffffffffffffffffffffffffffffff021916908373ffffffffffffffffffffffffffffffffffffffff160217905550505050505050505050505050505050565b600360205281600052604060002081815481106200054d57600080fd5b9060005260206000209060030201600091509150508060000160009054906101000a900473ffffffffffffffffffffffffffffffffffffffff16908060010160009054906101000a900473ffffffffffffffffffffffffffffffffffffffff16908060020160009054906101000a900473ffffffffffffffffffffffffffffffffffffffff16905083565b600160009054906101000a900473ffffffffffffffffffffffffffffffffffffffff1681565b600260009054906101000a900473ffffffffffffffffffffffffffffffffffffffff1681565b60008054906101000a900473ffffffffffffffffffffffffffffffffffffffff1681565b61353c8062000cbe83390190565b6000604051905090565b600080fd5b600080fd5b600080fd5b600080fd5b6000601f19601f8301169050919050565b7f4e487b7100000000000000000000000000000000000000000000000000000000600052604160045260246000fd5b620006bf8262000674565b810181811067ffffffffffffffff82111715620006e157620006e062000685565b5b80604052505050565b6000620006f662000656565b9050620007048282620006b4565b919050565b600067ffffffffffffffff82111562000727576200072662000685565b5b620007328262000674565b9050602081019050919050565b82818337600083830152505050565b6000620007656200075f8462000709565b620006ea565b9050828152602081018484840111156200078457620007836200066f565b5b620007918482856200073f565b509392505050565b600082601f830112620007b157620007b06200066a565b5b8135620007c38482602086016200074e565b91505092915050565b6000819050919050565b620007e181620007cc565b8114620007ed57600080fd5b50565b6000813590506200080181620007d6565b92915050565b600080600080600080600060e0888a03121562000829576200082862000660565b5b600088013567ffffffffffffffff8111156200084a576200084962000665565b5b620008588a828b0162000799565b975050602088013567ffffffffffffffff8111156200087c576200087b62000665565b5b6200088a8a828b0162000799565b96505060406200089d8a828b01620007f0565b9550506060620008b08a828b01620007f0565b9450506080620008c38a828b01620007f0565b93505060a0620008d68a828b01620007f0565b92505060c0620008e98a828b01620007f0565b91505092959891949750929550565b600073ffffffffffffffffffffffffffffffffffffffff82169050919050565b60006200092582620008f8565b9050919050565b620009378162000918565b81146200094357600080fd5b50565b60008135905062000957816200092c565b92915050565b6000806040838503121562000977576200097662000660565b5b6000620009878582860162000946565b92505060206200099a85828601620007f0565b9150509250929050565b620009af8162000918565b82525050565b6000606082019050620009cc6000830186620009a4565b620009db6020830185620009a4565b620009ea6040830184620009a4565b949350505050565b600060208201905062000a096000830184620009a4565b92915050565b600081519050919050565b600082825260208201905092915050565b60005b8381101562000a4b57808201518184015260208101905062000a2e565b8381111562000a5b576000848401525b50505050565b600062000a6e8262000a0f565b62000a7a818562000a1a565b935062000a8c81856020860162000a2b565b62000a978162000674565b840191505092915050565b62000aad81620007cc565b82525050565b6000606082019050818103600083015262000acf818662000a61565b9050818103602083015262000ae5818562000a61565b905062000af6604083018462000aa2565b949350505050565b60008151905062000b0f816200092c565b92915050565b60006020828403121562000b2e5762000b2d62000660565b5b600062000b3e8482850162000afe565b91505092915050565b600081519050919050565b600082825260208201905092915050565b6000819050602082019050919050565b62000b7e8162000918565b82525050565b600062000b92838362000b73565b60208301905092915050565b6000602082019050919050565b600062000bb88262000b47565b62000bc4818562000b52565b935062000bd18362000b63565b8060005b8381101562000c0857815162000bec888262000b84565b975062000bf98362000b9e565b92505060018101905062000bd5565b5085935050505092915050565b600060608201905062000c2c600083018662000aa2565b818103602083015262000c40818562000bab565b9050818103604083015262000c56818462000bab565b9050949350505050565b600060a08201905062000c776000830188620009a4565b62000c866020830187620009a4565b62000c95604083018662000aa2565b62000ca4606083018562000aa2565b62000cb3608083018462000aa2565b969550505050505056fe60806040523480156200001157600080fd5b506040516200353c3803806200353c8339818101604052810190620000379190620006d8565b8282826200006c7f5f58e3a2316349923ce3780f8d587db2d72378aed66a8261c916544fa6846ca580620002b460201b60201c565b620000be7fb09aa5aeb3702cfd50b6b62bc4532604938f21248a27a1d5ca736082b6819cc17f5f58e3a2316349923ce3780f8d587db2d72378aed66a8261c916544fa6846ca5620002b460201b60201c565b620001107fd8aa0f3194971a2a116679f7c2090f6939c8d4e01a2a8d7e41d55e5351469e637f5f58e3a2316349923ce3780f8d587db2d72378aed66a8261c916544fa6846ca5620002b460201b60201c565b620001517f5f58e3a2316349923ce3780f8d587db2d72378aed66a8261c916544fa6846ca5620001456200031760201b60201c565b6200031f60201b60201c565b620001837f5f58e3a2316349923ce3780f8d587db2d72378aed66a8261c916544fa6846ca5306200031f60201b60201c565b60005b8251811015620001f357620001df7fb09aa5aeb3702cfd50b6b62bc4532604938f21248a27a1d5ca736082b6819cc1848381518110620001cb57620001ca62000772565b5b60200260200101516200031f60201b60201c565b80620001eb90620007d0565b905062000186565b5060005b81518110156200026457620002507fd8aa0f3194971a2a116679f7c2090f6939c8d4e01a2a8d7e41d55e5351469e638383815181106200023c576200023b62000772565b5b60200260200101516200031f60201b60201c565b806200025c90620007d0565b9050620001f7565b50826002819055507f11c24f4ead16507c69ac467fbd5e4eed5fb5c699626d2cc6d66421df253886d5600084604051620002a09291906200087c565b60405180910390a1505050505050620008a9565b6000620002c7836200033560201b60201c565b905081600080858152602001908152602001600020600101819055508181847fbd79b86ffe0ab8e8776151514217cd7cacd52c909f66475c3af44e129f0b00ff60405160405180910390a4505050565b600033905090565b6200033182826200035460201b60201c565b5050565b6000806000838152602001908152602001600020600101549050919050565b6200036682826200044560201b60201c565b6200044157600160008084815260200190815260200160002060000160008373ffffffffffffffffffffffffffffffffffffffff1673ffffffffffffffffffffffffffffffffffffffff16815260200190815260200160002060006101000a81548160ff021916908315150217905550620003e66200031760201b60201c565b73ffffffffffffffffffffffffffffffffffffffff168173ffffffffffffffffffffffffffffffffffffffff16837f2f8788117e7eff1d82e926ec794901d17c78024a50270940304540a733656f0d60405160405180910390a45b5050565b600080600084815260200190815260200160002060000160008373ffffffffffffffffffffffffffffffffffffffff1673ffffffffffffffffffffffffffffffffffffffff16815260200190815260200160002060009054906101000a900460ff16905092915050565b6000604051905090565b600080fd5b600080fd5b6000819050919050565b620004d881620004c3565b8114620004e457600080fd5b50565b600081519050620004f881620004cd565b92915050565b600080fd5b6000601f19601f8301169050919050565b7f4e487b7100000000000000000000000000000000000000000000000000000000600052604160045260246000fd5b6200054e8262000503565b810181811067ffffffffffffffff8211171562000570576200056f62000514565b5b80604052505050565b600062000585620004af565b905062000593828262000543565b919050565b600067ffffffffffffffff821115620005b657620005b562000514565b5b602082029050602081019050919050565b600080fd5b600073ffffffffffffffffffffffffffffffffffffffff82169050919050565b6000620005f982620005cc565b9050919050565b6200060b81620005ec565b81146200061757600080fd5b50565b6000815190506200062b8162000600565b92915050565b600062000648620006428462000598565b62000579565b905080838252602082019050602084028301858111156200066e576200066d620005c7565b5b835b818110156200069b57806200068688826200061a565b84526020840193505060208101905062000670565b5050509392505050565b600082601f830112620006bd57620006bc620004fe565b5b8151620006cf84826020860162000631565b91505092915050565b600080600060608486031215620006f457620006f3620004b9565b5b60006200070486828701620004e7565b935050602084015167ffffffffffffffff811115620007285762000727620004be565b5b6200073686828701620006a5565b925050604084015167ffffffffffffffff8111156200075a5762000759620004be565b5b6200076886828701620006a5565b9150509250925092565b7f4e487b7100000000000000000000000000000000000000000000000000000000600052603260045260246000fd5b7f4e487b7100000000000000000000000000000000000000000000000000000000600052601160045260246000fd5b6000620007dd82620004c3565b91507fffffffffffffffffffffffffffffffffffffffffffffffffffffffffffffffff821415620008135762000812620007a1565b5b600182019050919050565b6000819050919050565b6000819050919050565b6000620008536200084d62000847846200081e565b62000828565b620004c3565b9050919050565b620008658162000832565b82525050565b6200087681620004c3565b82525050565b60006040820190506200089360008301856200085a565b620008a260208301846200086b565b9392505050565b612c8380620008b96000396000f3fe60806040526004361061014f5760003560e01c806364d62353116100b6578063b1c5f4271161006f578063b1c5f427146104d8578063c4d252f514610515578063d45c44351461053e578063d547741f1461057b578063e38335e5146105a4578063f27a0c92146105c057610156565b806364d62353146103b65780638065657f146103df5780638f2a0bb01461041c5780638f61f4f51461044557806391d1485414610470578063a217fddf146104ad57610156565b8063248a9ca311610108578063248a9ca3146102705780632ab0f529146102ad5780632f2ff15d146102ea57806331d507501461031357806336568abe14610350578063584b153e1461037957610156565b806301d5062a1461015b57806301ffc9a71461018457806307bd0265146101c15780630d3cf6fc146101ec578063134008d31461021757806313bc9f201461023357610156565b3661015657005b600080fd5b34801561016757600080fd5b50610182600480360381019061017d919061181b565b6105eb565b005b34801561019057600080fd5b506101ab60048036038101906101a69190611922565b610688565b6040516101b8919061196a565b60405180910390f35b3480156101cd57600080fd5b506101d6610702565b6040516101e39190611994565b60405180910390f35b3480156101f857600080fd5b50610201610726565b60405161020e9190611994565b60405180910390f35b610231600480360381019061022c91906119af565b61074a565b005b34801561023f57600080fd5b5061025a60048036038101906102559190611a49565b6107ca565b604051610267919061196a565b60405180910390f35b34801561027c57600080fd5b5061029760048036038101906102929190611a49565b6107f0565b6040516102a49190611994565b60405180910390f35b3480156102b957600080fd5b506102d460048036038101906102cf9190611a49565b61080f565b6040516102e1919061196a565b60405180910390f35b3480156102f657600080fd5b50610311600480360381019061030c9190611a76565b610824565b005b34801561031f57600080fd5b5061033a60048036038101906103359190611a49565b61084d565b604051610347919061196a565b60405180910390f35b34801561035c57600080fd5b5061037760048036038101906103729190611a76565b610861565b005b34801561038557600080fd5b506103a0600480360381019061039b9190611a49565b6108e4565b6040516103ad919061196a565b60405180910390f35b3480156103c257600080fd5b506103dd60048036038101906103d89190611ab6565b6108f9565b005b3480156103eb57600080fd5b50610406600480360381019061040191906119af565b6109ac565b6040516104139190611994565b60405180910390f35b34801561042857600080fd5b50610443600480360381019061043e9190611be5565b6109eb565b005b34801561045157600080fd5b5061045a610b9e565b6040516104679190611994565b60405180910390f35b34801561047c57600080fd5b5061049760048036038101906104929190611a76565b610bc2565b6040516104a4919061196a565b60405180910390f35b3480156104b957600080fd5b506104c2610c2c565b6040516104cf9190611994565b60405180910390f35b3480156104e457600080fd5b506104ff60048036038101906104fa9190611cd4565b610c33565b60405161050c9190611994565b60405180910390f35b34801561052157600080fd5b5061053c60048036038101906105379190611a49565b610c78565b005b34801561054a57600080fd5b5061056560048036038101906105609190611a49565b610d3a565b6040516105729190611dbf565b60405180910390f35b34801561058757600080fd5b506105a2600480360381019061059d9190611a76565b610d57565b005b6105be60048036038101906105b99190611cd4565b610d80565b005b3480156105cc57600080fd5b506105d5610f16565b6040516105e29190611dbf565b60405180910390f35b7fb09aa5aeb3702cfd50b6b62bc4532604938f21248a27a1d5ca736082b6819cc161061d81610618610f20565b610f28565b600061062d8989898989896109ac565b90506106398184610fc5565b6000817f4cf4410cc57040e44862ef0f45f3dd5a5e02db8eb8add648d4b0e236f1d07dca8b8b8b8b8b8a60405161067596959493929190611e47565b60405180910390a3505050505050505050565b60007f7965db0b000000000000000000000000000000000000000000000000000000007bffffffffffffffffffffffffffffffffffffffffffffffffffffffff1916827bffffffffffffffffffffffffffffffffffffffffffffffffffffffff191614806106fb57506106fa8261107f565b5b9050919050565b7fd8aa0f3194971a2a116679f7c2090f6939c8d4e01a2a8d7e41d55e5351469e6381565b7f5f58e3a2316349923ce3780f8d587db2d72378aed66a8261c916544fa6846ca581565b7fd8aa0f3194971a2a116679f7c2090f6939c8d4e01a2a8d7e41d55e5351469e63610776816000610bc2565b61078c5761078b81610786610f20565b610f28565b5b600061079c8888888888886109ac565b90506107a881856110e9565b6107b78160008a8a8a8a61118a565b6107c081611282565b5050505050505050565b6000806107d683610d3a565b90506001811180156107e85750428111155b915050919050565b6000806000838152602001908152602001600020600101549050919050565b6000600161081c83610d3a565b149050919050565b61082d826107f0565b61083e81610839610f20565b610f28565b61084883836112e5565b505050565b60008061085983610d3a565b119050919050565b610869610f20565b73ffffffffffffffffffffffffffffffffffffffff168173ffffffffffffffffffffffffffffffffffffffff16146108d6576040517f08c379a00000000000000000000000000000000000000000000000000000000081526004016108cd90611f26565b60405180910390fd5b6108e082826113c5565b5050565b600060016108f183610d3a565b119050919050565b3073ffffffffffffffffffffffffffffffffffffffff163373ffffffffffffffffffffffffffffffffffffffff1614610967576040517f08c379a000000000000000000000000000000000000000000000000000000000815260040161095e90611fb8565b60405180910390fd5b7f11c24f4ead16507c69ac467fbd5e4eed5fb5c699626d2cc6d66421df253886d56002548260405161099a929190611fd8565b60405180910390a18060028190555050565b60008686868686866040516020016109c996959493929190612001565b6040516020818303038152906040528051906020012090509695505050505050565b7fb09aa5aeb3702cfd50b6b62bc4532604938f21248a27a1d5ca736082b6819cc1610a1d81610a18610f20565b610f28565b878790508a8a905014610a65576040517f08c379a0000000000000000000000000000000000000000000000000000000008152600401610a5c906120cf565b60405180910390fd5b858590508a8a905014610aad576040517f08c379a0000000000000000000000000000000000000000000000000000000008152600401610aa4906120cf565b60405180910390fd5b6000610abf8b8b8b8b8b8b8b8b610c33565b9050610acb8184610fc5565b60005b8b8b9050811015610b905780827f4cf4410cc57040e44862ef0f45f3dd5a5e02db8eb8add648d4b0e236f1d07dca8e8e85818110610b0f57610b0e6120ef565b5b9050602002016020810190610b24919061211e565b8d8d86818110610b3757610b366120ef565b5b905060200201358c8c87818110610b5157610b506120ef565b5b9050602002810190610b63919061215a565b8c8b604051610b7796959493929190611e47565b60405180910390a380610b89906121ec565b9050610ace565b505050505050505050505050565b7fb09aa5aeb3702cfd50b6b62bc4532604938f21248a27a1d5ca736082b6819cc181565b600080600084815260200190815260200160002060000160008373ffffffffffffffffffffffffffffffffffffffff1673ffffffffffffffffffffffffffffffffffffffff16815260200190815260200160002060009054906101000a900460ff16905092915050565b6000801b81565b60008888888888888888604051602001610c549897969594939291906124ce565b60405160208183030381529060405280519060200120905098975050505050505050565b7fb09aa5aeb3702cfd50b6b62bc4532604938f21248a27a1d5ca736082b6819cc1610caa81610ca5610f20565b610f28565b610cb3826108e4565b610cf2576040517f08c379a0000000000000000000000000000000000000000000000000000000008152600401610ce9906125ae565b60405180910390fd5b6001600083815260200190815260200160002060009055817fbaa1eb22f2a492ba1a5fea61b8df4d27c6c8b5f3971e63bb58fa14ff72eedb7060405160405180910390a25050565b600060016000838152602001908152602001600020549050919050565b610d60826107f0565b610d7181610d6c610f20565b610f28565b610d7b83836113c5565b505050565b7fd8aa0f3194971a2a116679f7c2090f6939c8d4e01a2a8d7e41d55e5351469e63610dac816000610bc2565b610dc257610dc181610dbc610f20565b610f28565b5b868690508989905014610e0a576040517f08c379a0000000000000000000000000000000000000000000000000000000008152600401610e01906120cf565b60405180910390fd5b848490508989905014610e52576040517f08c379a0000000000000000000000000000000000000000000000000000000008152600401610e49906120cf565b60405180910390fd5b6000610e648a8a8a8a8a8a8a8a610c33565b9050610e7081856110e9565b60005b8a8a9050811015610f0057610eef82828d8d85818110610e9657610e956120ef565b5b9050602002016020810190610eab919061211e565b8c8c86818110610ebe57610ebd6120ef565b5b905060200201358b8b87818110610ed857610ed76120ef565b5b9050602002810190610eea919061215a565b61118a565b80610ef9906121ec565b9050610e73565b50610f0a81611282565b50505050505050505050565b6000600254905090565b600033905090565b610f328282610bc2565b610fc157610f578173ffffffffffffffffffffffffffffffffffffffff1660146114a6565b610f658360001c60206114a6565b604051602001610f769291906126e0565b6040516020818303038152906040526040517f08c379a0000000000000000000000000000000000000000000000000000000008152600401610fb89190612753565b60405180910390fd5b5050565b610fce8261084d565b1561100e576040517f08c379a0000000000000000000000000000000000000000000000000000000008152600401611005906127e7565b60405180910390fd5b611016610f16565b811015611058576040517f08c379a000000000000000000000000000000000000000000000000000000000815260040161104f90612879565b60405180910390fd5b80426110649190612899565b60016000848152602001908152602001600020819055505050565b60007f01ffc9a7000000000000000000000000000000000000000000000000000000007bffffffffffffffffffffffffffffffffffffffffffffffffffffffff1916827bffffffffffffffffffffffffffffffffffffffffffffffffffffffff1916149050919050565b6110f2826107ca565b611131576040517f08c379a000000000000000000000000000000000000000000000000000000000815260040161112890612961565b60405180910390fd5b6000801b81148061114757506111468161080f565b5b611186576040517f08c379a000000000000000000000000000000000000000000000000000000000815260040161117d906129f3565b60405180910390fd5b5050565b60008473ffffffffffffffffffffffffffffffffffffffff168484846040516111b4929190612a43565b60006040518083038185875af1925050503d80600081146111f1576040519150601f19603f3d011682016040523d82523d6000602084013e6111f6565b606091505b505090508061123a576040517f08c379a000000000000000000000000000000000000000000000000000000000815260040161123190612ace565b60405180910390fd5b85877fc2617efa69bab66782fa219543714338489c4e9e178271560a91b82c3f612b58878787876040516112719493929190612aee565b60405180910390a350505050505050565b61128b816107ca565b6112ca576040517f08c379a00000000000000000000000000000000000000000000000000000000081526004016112c190612961565b60405180910390fd5b60018060008381526020019081526020016000208190555050565b6112ef8282610bc2565b6113c157600160008084815260200190815260200160002060000160008373ffffffffffffffffffffffffffffffffffffffff1673ffffffffffffffffffffffffffffffffffffffff16815260200190815260200160002060006101000a81548160ff021916908315150217905550611366610f20565b73ffffffffffffffffffffffffffffffffffffffff168173ffffffffffffffffffffffffffffffffffffffff16837f2f8788117e7eff1d82e926ec794901d17c78024a50270940304540a733656f0d60405160405180910390a45b5050565b6113cf8282610bc2565b156114a257600080600084815260200190815260200160002060000160008373ffffffffffffffffffffffffffffffffffffffff1673ffffffffffffffffffffffffffffffffffffffff16815260200190815260200160002060006101000a81548160ff021916908315150217905550611447610f20565b73ffffffffffffffffffffffffffffffffffffffff168173ffffffffffffffffffffffffffffffffffffffff16837ff6391f5c32d9c69d2a47ea670b442974b53935d1edc7fd64eb21e047a839171b60405160405180910390a45b5050565b6060600060028360026114b99190612b2e565b6114c39190612899565b67ffffffffffffffff8111156114dc576114db612b88565b5b6040519080825280601f01601f19166020018201604052801561150e5781602001600182028036833780820191505090505b5090507f300000000000000000000000000000000000000000000000000000000000000081600081518110611546576115456120ef565b5b60200101907effffffffffffffffffffffffffffffffffffffffffffffffffffffffffffff1916908160001a9053507f7800000000000000000000000000000000000000000000000000000000000000816001815181106115aa576115a96120ef565b5b60200101907effffffffffffffffffffffffffffffffffffffffffffffffffffffffffffff1916908160001a905350600060018460026115ea9190612b2e565b6115f49190612899565b90505b6001811115611694577f3031323334353637383961626364656600000000000000000000000000000000600f861660108110611636576116356120ef565b5b1a60f81b82828151811061164d5761164c6120ef565b5b60200101907effffffffffffffffffffffffffffffffffffffffffffffffffffffffffffff1916908160001a905350600485901c94508061168d90612bb7565b90506115f7565b50600084146116d8576040517f08c379a00000000000000000000000000000000000000000000000000000000081526004016116cf90612c2d565b60405180910390fd5b8091505092915050565b600080fd5b600080fd5b600073ffffffffffffffffffffffffffffffffffffffff82169050919050565b6000611717826116ec565b9050919050565b6117278161170c565b811461173257600080fd5b50565b6000813590506117448161171e565b92915050565b6000819050919050565b61175d8161174a565b811461176857600080fd5b50565b60008135905061177a81611754565b92915050565b600080fd5b600080fd5b600080fd5b60008083601f8401126117a5576117a4611780565b5b8235905067ffffffffffffffff8111156117c2576117c1611785565b5b6020830191508360018202830111156117de576117dd61178a565b5b9250929050565b6000819050919050565b6117f8816117e5565b811461180357600080fd5b50565b600081359050611815816117ef565b92915050565b600080600080600080600060c0888a03121561183a576118396116e2565b5b60006118488a828b01611735565b97505060206118598a828b0161176b565b965050604088013567ffffffffffffffff81111561187a576118796116e7565b5b6118868a828b0161178f565b955095505060606118998a828b01611806565b93505060806118aa8a828b01611806565b92505060a06118bb8a828b0161176b565b91505092959891949750929550565b60007fffffffff0000000000000000000000000000000000000000000000000000000082169050919050565b6118ff816118ca565b811461190a57600080fd5b50565b60008135905061191c816118f6565b92915050565b600060208284031215611938576119376116e2565b5b60006119468482850161190d565b91505092915050565b60008115159050919050565b6119648161194f565b82525050565b600060208201905061197f600083018461195b565b92915050565b61198e816117e5565b82525050565b60006020820190506119a96000830184611985565b92915050565b60008060008060008060a087890312156119cc576119cb6116e2565b5b60006119da89828a01611735565b96505060206119eb89828a0161176b565b955050604087013567ffffffffffffffff811115611a0c57611a0b6116e7565b5b611a1889828a0161178f565b94509450506060611a2b89828a01611806565b9250506080611a3c89828a01611806565b9150509295509295509295565b600060208284031215611a5f57611a5e6116e2565b5b6000611a6d84828501611806565b91505092915050565b60008060408385031215611a8d57611a8c6116e2565b5b6000611a9b85828601611806565b9250506020611aac85828601611735565b9150509250929050565b600060208284031215611acc57611acb6116e2565b5b6000611ada8482850161176b565b91505092915050565b60008083601f840112611af957611af8611780565b5b8235905067ffffffffffffffff811115611b1657611b15611785565b5b602083019150836020820283011115611b3257611b3161178a565b5b9250929050565b60008083601f840112611b4f57611b4e611780565b5b8235905067ffffffffffffffff811115611b6c57611b6b611785565b5b602083019150836020820283011115611b8857611b8761178a565b5b9250929050565b60008083601f840112611ba557611ba4611780565b5b8235905067ffffffffffffffff811115611bc257611bc1611785565b5b602083019150836020820283011115611bde57611bdd61178a565b5b9250929050565b600080600080600080600080600060c08a8c031215611c0757611c066116e2565b5b60008a013567ffffffffffffffff811115611c2557611c246116e7565b5b611c318c828d01611ae3565b995099505060208a013567ffffffffffffffff811115611c5457611c536116e7565b5b611c608c828d01611b39565b975097505060408a013567ffffffffffffffff811115611c8357611c826116e7565b5b611c8f8c828d01611b8f565b95509550506060611ca28c828d01611806565b9350506080611cb38c828d01611806565b92505060a0611cc48c828d0161176b565b9150509295985092959850929598565b60008060008060008060008060a0898b031215611cf457611cf36116e2565b5b600089013567ffffffffffffffff811115611d1257611d116116e7565b5b611d1e8b828c01611ae3565b9850985050602089013567ffffffffffffffff811115611d4157611d406116e7565b5b611d4d8b828c01611b39565b9650965050604089013567ffffffffffffffff811115611d7057611d6f6116e7565b5b611d7c8b828c01611b8f565b94509450506060611d8f8b828c01611806565b9250506080611da08b828c01611806565b9150509295985092959890939650565b611db98161174a565b82525050565b6000602082019050611dd46000830184611db0565b92915050565b611de38161170c565b82525050565b600082825260208201905092915050565b82818337600083830152505050565b6000601f19601f8301169050919050565b6000611e268385611de9565b9350611e33838584611dfa565b611e3c83611e09565b840190509392505050565b600060a082019050611e5c6000830189611dda565b611e696020830188611db0565b8181036040830152611e7c818688611e1a565b9050611e8b6060830185611985565b611e986080830184611db0565b979650505050505050565b600082825260208201905092915050565b7f416363657373436f6e74726f6c3a2063616e206f6e6c792072656e6f756e636560008201527f20726f6c657320666f722073656c660000000000000000000000000000000000602082015250565b6000611f10602f83611ea3565b9150611f1b82611eb4565b604082019050919050565b60006020820190508181036000830152611f3f81611f03565b9050919050565b7f54696d656c6f636b436f6e74726f6c6c65723a2063616c6c6572206d7573742060008201527f62652074696d656c6f636b000000000000000000000000000000000000000000602082015250565b6000611fa2602b83611ea3565b9150611fad82611f46565b604082019050919050565b60006020820190508181036000830152611fd181611f95565b9050919050565b6000604082019050611fed6000830185611db0565b611ffa6020830184611db0565b9392505050565b600060a0820190506120166000830189611dda565b6120236020830188611db0565b8181036040830152612036818688611e1a565b90506120456060830185611985565b6120526080830184611985565b979650505050505050565b7f54696d656c6f636b436f6e74726f6c6c65723a206c656e677468206d69736d6160008201527f7463680000000000000000000000000000000000000000000000000000000000602082015250565b60006120b9602383611ea3565b91506120c48261205d565b604082019050919050565b600060208201905081810360008301526120e8816120ac565b9050919050565b7f4e487b7100000000000000000000000000000000000000000000000000000000600052603260045260246000fd5b600060208284031215612134576121336116e2565b5b600061214284828501611735565b91505092915050565b600080fd5b600080fd5b600080fd5b600080833560016020038436030381126121775761217661214b565b5b80840192508235915067ffffffffffffffff82111561219957612198612150565b5b6020830192506001820236038313156121b5576121b4612155565b5b509250929050565b7f4e487b7100000000000000000000000000000000000000000000000000000000600052601160045260246000fd5b60006121f78261174a565b91507fffffffffffffffffffffffffffffffffffffffffffffffffffffffffffffffff82141561222a576122296121bd565b5b600182019050919050565b600082825260208201905092915050565b6000819050919050565b6122598161170c565b82525050565b600061226b8383612250565b60208301905092915050565b60006122866020840184611735565b905092915050565b6000602082019050919050565b60006122a78385612235565b93506122b282612246565b8060005b858110156122eb576122c88284612277565b6122d2888261225f565b97506122dd8361228e565b9250506001810190506122b6565b5085925050509392505050565b600082825260208201905092915050565b600080fd5b600061231a83856122f8565b93507f07ffffffffffffffffffffffffffffffffffffffffffffffffffffffffffffff83111561234d5761234c612309565b5b60208302925061235e838584611dfa565b82840190509392505050565b600082825260208201905092915050565b6000819050919050565b600082825260208201905092915050565b60006123a28385612385565b93506123af838584611dfa565b6123b883611e09565b840190509392505050565b60006123d0848484612396565b90509392505050565b600080fd5b600080fd5b600080fd5b60008083356001602003843603038112612405576124046123e3565b5b83810192508235915060208301925067ffffffffffffffff82111561242d5761242c6123d9565b5b600182023603841315612443576124426123de565b5b509250929050565b6000602082019050919050565b6000612464838561236a565b9350836020840285016124768461237b565b8060005b878110156124bc57848403895261249182846123e8565b61249c8682846123c3565b95506124a78461244b565b935060208b019a50505060018101905061247a565b50829750879450505050509392505050565b600060a08201905081810360008301526124e9818a8c61229b565b905081810360208301526124fe81888a61230e565b90508181036040830152612513818688612458565b90506125226060830185611985565b61252f6080830184611985565b9998505050505050505050565b7f54696d656c6f636b436f6e74726f6c6c65723a206f7065726174696f6e20636160008201527f6e6e6f742062652063616e63656c6c6564000000000000000000000000000000602082015250565b6000612598603183611ea3565b91506125a38261253c565b604082019050919050565b600060208201905081810360008301526125c78161258b565b9050919050565b600081905092915050565b7f416363657373436f6e74726f6c3a206163636f756e7420000000000000000000600082015250565b600061260f6017836125ce565b915061261a826125d9565b601782019050919050565b600081519050919050565b60005b8381101561264e578082015181840152602081019050612633565b8381111561265d576000848401525b50505050565b600061266e82612625565b61267881856125ce565b9350612688818560208601612630565b80840191505092915050565b7f206973206d697373696e6720726f6c6520000000000000000000000000000000600082015250565b60006126ca6011836125ce565b91506126d582612694565b601182019050919050565b60006126eb82612602565b91506126f78285612663565b9150612702826126bd565b915061270e8284612663565b91508190509392505050565b600061272582612625565b61272f8185611ea3565b935061273f818560208601612630565b61274881611e09565b840191505092915050565b6000602082019050818103600083015261276d818461271a565b905092915050565b7f54696d656c6f636b436f6e74726f6c6c65723a206f7065726174696f6e20616c60008201527f7265616479207363686564756c65640000000000000000000000000000000000602082015250565b60006127d1602f83611ea3565b91506127dc82612775565b604082019050919050565b60006020820190508181036000830152612800816127c4565b9050919050565b7f54696d656c6f636b436f6e74726f6c6c65723a20696e73756666696369656e7460008201527f2064656c61790000000000000000000000000000000000000000000000000000602082015250565b6000612863602683611ea3565b915061286e82612807565b604082019050919050565b6000602082019050818103600083015261289281612856565b9050919050565b60006128a48261174a565b91506128af8361174a565b9250827fffffffffffffffffffffffffffffffffffffffffffffffffffffffffffffffff038211156128e4576128e36121bd565b5b828201905092915050565b7f54696d656c6f636b436f6e74726f6c6c65723a206f7065726174696f6e20697360008201527f206e6f7420726561647900000000000000000000000000000000000000000000602082015250565b600061294b602a83611ea3565b9150612956826128ef565b604082019050919050565b6000602082019050818103600083015261297a8161293e565b9050919050565b7f54696d656c6f636b436f6e74726f6c6c65723a206d697373696e67206465706560008201527f6e64656e63790000000000000000000000000000000000000000000000000000602082015250565b60006129dd602683611ea3565b91506129e882612981565b604082019050919050565b60006020820190508181036000830152612a0c816129d0565b9050919050565b600081905092915050565b6000612a2a8385612a13565b9350612a37838584611dfa565b82840190509392505050565b6000612a50828486612a1e565b91508190509392505050565b7f54696d656c6f636b436f6e74726f6c6c65723a20756e6465726c79696e67207460008201527f72616e73616374696f6e20726576657274656400000000000000000000000000602082015250565b6000612ab8603383611ea3565b9150612ac382612a5c565b604082019050919050565b60006020820190508181036000830152612ae781612aab565b9050919050565b6000606082019050612b036000830187611dda565b612b106020830186611db0565b8181036040830152612b23818486611e1a565b905095945050505050565b6000612b398261174a565b9150612b448361174a565b9250817fffffffffffffffffffffffffffffffffffffffffffffffffffffffffffffffff0483118215151615612b7d57612b7c6121bd565b5b828202905092915050565b7f4e487b7100000000000000000000000000000000000000000000000000000000600052604160045260246000fd5b6000612bc28261174a565b91506000821415612bd657612bd56121bd565b5b600182039050919050565b7f537472696e67733a20686578206c656e67746820696e73756666696369656e74600082015250565b6000612c17602083611ea3565b9150612c2282612be1565b602082019050919050565b60006020820190508181036000830152612c4681612c0a565b905091905056fea2646970667358221220a57ba1f0532a4d4057c8275b278c99af9e84a470d4f15eb92a26fa3c755f15d664736f6c63430008090033a2646970667358221220fe49e6979b95c094d4939fd1abbece9f8e42cbdaf8ba4f11a6ae304eebb63c3d64736f6c63430008090033",
  "devdoc": {
    "kind": "dev",
    "methods": {},
    "version": 1
  },
  "userdoc": {
    "kind": "user",
    "methods": {},
    "notice": "Factory that creates other DAO contracts.",
    "version": 1
  },
  "storageLayout": {
    "storage": [
      {
        "astId": 6693,
        "contract": "contracts/DAOFactory.sol:DAOFactory",
        "label": "admin",
        "offset": 0,
        "slot": "0",
        "type": "t_address"
      },
      {
        "astId": 6695,
        "contract": "contracts/DAOFactory.sol:DAOFactory",
        "label": "daoTokenFactory",
        "offset": 0,
        "slot": "1",
        "type": "t_address"
      },
      {
        "astId": 6697,
        "contract": "contracts/DAOFactory.sol:DAOFactory",
        "label": "createDAOContract",
        "offset": 0,
        "slot": "2",
        "type": "t_address"
      },
      {
        "astId": 6710,
        "contract": "contracts/DAOFactory.sol:DAOFactory",
        "label": "userDaos",
        "offset": 0,
        "slot": "3",
        "type": "t_mapping(t_address,t_array(t_struct(DAOInfo)6704_storage)dyn_storage)"
      }
    ],
    "types": {
      "t_address": {
        "encoding": "inplace",
        "label": "address",
        "numberOfBytes": "20"
      },
      "t_array(t_struct(DAOInfo)6704_storage)dyn_storage": {
        "base": "t_struct(DAOInfo)6704_storage",
        "encoding": "dynamic_array",
        "label": "struct DAOFactory.DAOInfo[]",
        "numberOfBytes": "32"
      },
      "t_mapping(t_address,t_array(t_struct(DAOInfo)6704_storage)dyn_storage)": {
        "encoding": "mapping",
        "key": "t_address",
        "label": "mapping(address => struct DAOFactory.DAOInfo[])",
        "numberOfBytes": "32",
        "value": "t_array(t_struct(DAOInfo)6704_storage)dyn_storage"
      },
      "t_struct(DAOInfo)6704_storage": {
        "encoding": "inplace",
        "label": "struct DAOFactory.DAOInfo",
        "members": [
          {
            "astId": 6699,
            "contract": "contracts/DAOFactory.sol:DAOFactory",
            "label": "daoToken",
            "offset": 0,
            "slot": "0",
            "type": "t_address"
          },
          {
            "astId": 6701,
            "contract": "contracts/DAOFactory.sol:DAOFactory",
            "label": "daoTimelock",
            "offset": 0,
            "slot": "1",
            "type": "t_address"
          },
          {
            "astId": 6703,
            "contract": "contracts/DAOFactory.sol:DAOFactory",
            "label": "dao",
            "offset": 0,
            "slot": "2",
            "type": "t_address"
          }
        ],
        "numberOfBytes": "96"
      }
    }
  }
}