{
  "address": "0x5FbDB2315678afecb367f032d93F642f64180aa3",
  "abi": [
    {
      "inputs": [
        {
          "internalType": "string",
          "name": "_name",
          "type": "string"
        },
        {
          "internalType": "string",
          "name": "_symbol",
          "type": "string"
        }
      ],
      "stateMutability": "nonpayable",
      "type": "constructor"
    },
    {
      "anonymous": false,
      "inputs": [
        {
          "indexed": true,
          "internalType": "address",
          "name": "owner",
          "type": "address"
        },
        {
          "indexed": true,
          "internalType": "address",
          "name": "spender",
          "type": "address"
        },
        {
          "indexed": false,
          "internalType": "uint256",
          "name": "value",
          "type": "uint256"
        }
      ],
      "name": "Approval",
      "type": "event"
    },
    {
      "anonymous": false,
      "inputs": [
        {
          "indexed": true,
          "internalType": "address",
          "name": "delegator",
          "type": "address"
        },
        {
          "indexed": true,
          "internalType": "address",
          "name": "fromDelegate",
          "type": "address"
        },
        {
          "indexed": true,
          "internalType": "address",
          "name": "toDelegate",
          "type": "address"
        }
      ],
      "name": "DelegateChanged",
      "type": "event"
    },
    {
      "anonymous": false,
      "inputs": [
        {
          "indexed": true,
          "internalType": "address",
          "name": "delegate",
          "type": "address"
        },
        {
          "indexed": false,
          "internalType": "uint256",
          "name": "previousBalance",
          "type": "uint256"
        },
        {
          "indexed": false,
          "internalType": "uint256",
          "name": "newBalance",
          "type": "uint256"
        }
      ],
      "name": "DelegateVotesChanged",
      "type": "event"
    },
    {
      "anonymous": false,
      "inputs": [
        {
          "indexed": true,
          "internalType": "address",
          "name": "from",
          "type": "address"
        },
        {
          "indexed": true,
          "internalType": "address",
          "name": "to",
          "type": "address"
        },
        {
          "indexed": false,
          "internalType": "uint256",
          "name": "value",
          "type": "uint256"
        }
      ],
      "name": "Transfer",
      "type": "event"
    },
    {
      "inputs": [],
      "name": "DOMAIN_SEPARATOR",
      "outputs": [
        {
          "internalType": "bytes32",
          "name": "",
          "type": "bytes32"
        }
      ],
      "stateMutability": "view",
      "type": "function"
    },
    {
      "inputs": [
        {
          "internalType": "address",
          "name": "owner",
          "type": "address"
        },
        {
          "internalType": "address",
          "name": "spender",
          "type": "address"
        }
      ],
      "name": "allowance",
      "outputs": [
        {
          "internalType": "uint256",
          "name": "",
          "type": "uint256"
        }
      ],
      "stateMutability": "view",
      "type": "function"
    },
    {
      "inputs": [
        {
          "internalType": "address",
          "name": "spender",
          "type": "address"
        },
        {
          "internalType": "uint256",
          "name": "amount",
          "type": "uint256"
        }
      ],
      "name": "approve",
      "outputs": [
        {
          "internalType": "bool",
          "name": "",
          "type": "bool"
        }
      ],
      "stateMutability": "nonpayable",
      "type": "function"
    },
    {
      "inputs": [
        {
          "internalType": "address",
          "name": "account",
          "type": "address"
        }
      ],
      "name": "balanceOf",
      "outputs": [
        {
          "internalType": "uint256",
          "name": "",
          "type": "uint256"
        }
      ],
      "stateMutability": "view",
      "type": "function"
    },
    {
      "inputs": [
        {
          "internalType": "address",
          "name": "account",
          "type": "address"
        },
        {
          "internalType": "uint32",
          "name": "pos",
          "type": "uint32"
        }
      ],
      "name": "checkpoints",
      "outputs": [
        {
          "components": [
            {
              "internalType": "uint32",
              "name": "fromBlock",
              "type": "uint32"
            },
            {
              "internalType": "uint224",
              "name": "votes",
              "type": "uint224"
            }
          ],
          "internalType": "struct ERC20Votes.Checkpoint",
          "name": "",
          "type": "tuple"
        }
      ],
      "stateMutability": "view",
      "type": "function"
    },
    {
      "inputs": [],
      "name": "decimals",
      "outputs": [
        {
          "internalType": "uint8",
          "name": "",
          "type": "uint8"
        }
      ],
      "stateMutability": "view",
      "type": "function"
    },
    {
      "inputs": [
        {
          "internalType": "address",
          "name": "spender",
          "type": "address"
        },
        {
          "internalType": "uint256",
          "name": "subtractedValue",
          "type": "uint256"
        }
      ],
      "name": "decreaseAllowance",
      "outputs": [
        {
          "internalType": "bool",
          "name": "",
          "type": "bool"
        }
      ],
      "stateMutability": "nonpayable",
      "type": "function"
    },
    {
      "inputs": [
        {
          "internalType": "address",
          "name": "delegatee",
          "type": "address"
        }
      ],
      "name": "delegate",
      "outputs": [],
      "stateMutability": "nonpayable",
      "type": "function"
    },
    {
      "inputs": [
        {
          "internalType": "address",
          "name": "delegatee",
          "type": "address"
        },
        {
          "internalType": "uint256",
          "name": "nonce",
          "type": "uint256"
        },
        {
          "internalType": "uint256",
          "name": "expiry",
          "type": "uint256"
        },
        {
          "internalType": "uint8",
          "name": "v",
          "type": "uint8"
        },
        {
          "internalType": "bytes32",
          "name": "r",
          "type": "bytes32"
        },
        {
          "internalType": "bytes32",
          "name": "s",
          "type": "bytes32"
        }
      ],
      "name": "delegateBySig",
      "outputs": [],
      "stateMutability": "nonpayable",
      "type": "function"
    },
    {
      "inputs": [
        {
          "internalType": "address",
          "name": "account",
          "type": "address"
        }
      ],
      "name": "delegates",
      "outputs": [
        {
          "internalType": "address",
          "name": "",
          "type": "address"
        }
      ],
      "stateMutability": "view",
      "type": "function"
    },
    {
      "inputs": [
        {
          "internalType": "uint256",
          "name": "blockNumber",
          "type": "uint256"
        }
      ],
      "name": "getPastTotalSupply",
      "outputs": [
        {
          "internalType": "uint256",
          "name": "",
          "type": "uint256"
        }
      ],
      "stateMutability": "view",
      "type": "function"
    },
    {
      "inputs": [
        {
          "internalType": "address",
          "name": "account",
          "type": "address"
        },
        {
          "internalType": "uint256",
          "name": "blockNumber",
          "type": "uint256"
        }
      ],
      "name": "getPastVotes",
      "outputs": [
        {
          "internalType": "uint256",
          "name": "",
          "type": "uint256"
        }
      ],
      "stateMutability": "view",
      "type": "function"
    },
    {
      "inputs": [
        {
          "internalType": "address",
          "name": "account",
          "type": "address"
        }
      ],
      "name": "getVotes",
      "outputs": [
        {
          "internalType": "uint256",
          "name": "",
          "type": "uint256"
        }
      ],
      "stateMutability": "view",
      "type": "function"
    },
    {
      "inputs": [
        {
          "internalType": "address",
          "name": "spender",
          "type": "address"
        },
        {
          "internalType": "uint256",
          "name": "addedValue",
          "type": "uint256"
        }
      ],
      "name": "increaseAllowance",
      "outputs": [
        {
          "internalType": "bool",
          "name": "",
          "type": "bool"
        }
      ],
      "stateMutability": "nonpayable",
      "type": "function"
    },
    {
      "inputs": [],
      "name": "name",
      "outputs": [
        {
          "internalType": "string",
          "name": "",
          "type": "string"
        }
      ],
      "stateMutability": "view",
      "type": "function"
    },
    {
      "inputs": [
        {
          "internalType": "address",
          "name": "owner",
          "type": "address"
        }
      ],
      "name": "nonces",
      "outputs": [
        {
          "internalType": "uint256",
          "name": "",
          "type": "uint256"
        }
      ],
      "stateMutability": "view",
      "type": "function"
    },
    {
      "inputs": [
        {
          "internalType": "address",
          "name": "account",
          "type": "address"
        }
      ],
      "name": "numCheckpoints",
      "outputs": [
        {
          "internalType": "uint32",
          "name": "",
          "type": "uint32"
        }
      ],
      "stateMutability": "view",
      "type": "function"
    },
    {
      "inputs": [
        {
          "internalType": "address",
          "name": "owner",
          "type": "address"
        },
        {
          "internalType": "address",
          "name": "spender",
          "type": "address"
        },
        {
          "internalType": "uint256",
          "name": "value",
          "type": "uint256"
        },
        {
          "internalType": "uint256",
          "name": "deadline",
          "type": "uint256"
        },
        {
          "internalType": "uint8",
          "name": "v",
          "type": "uint8"
        },
        {
          "internalType": "bytes32",
          "name": "r",
          "type": "bytes32"
        },
        {
          "internalType": "bytes32",
          "name": "s",
          "type": "bytes32"
        }
      ],
      "name": "permit",
      "outputs": [],
      "stateMutability": "nonpayable",
      "type": "function"
    },
    {
      "inputs": [],
      "name": "s_maxSupply",
      "outputs": [
        {
          "internalType": "uint256",
          "name": "",
          "type": "uint256"
        }
      ],
      "stateMutability": "view",
      "type": "function"
    },
    {
      "inputs": [],
      "name": "symbol",
      "outputs": [
        {
          "internalType": "string",
          "name": "",
          "type": "string"
        }
      ],
      "stateMutability": "view",
      "type": "function"
    },
    {
      "inputs": [],
      "name": "totalSupply",
      "outputs": [
        {
          "internalType": "uint256",
          "name": "",
          "type": "uint256"
        }
      ],
      "stateMutability": "view",
      "type": "function"
    },
    {
      "inputs": [
        {
          "internalType": "address",
          "name": "recipient",
          "type": "address"
        },
        {
          "internalType": "uint256",
          "name": "amount",
          "type": "uint256"
        }
      ],
      "name": "transfer",
      "outputs": [
        {
          "internalType": "bool",
          "name": "",
          "type": "bool"
        }
      ],
      "stateMutability": "nonpayable",
      "type": "function"
    },
    {
      "inputs": [
        {
          "internalType": "address",
          "name": "sender",
          "type": "address"
        },
        {
          "internalType": "address",
          "name": "recipient",
          "type": "address"
        },
        {
          "internalType": "uint256",
          "name": "amount",
          "type": "uint256"
        }
      ],
      "name": "transferFrom",
      "outputs": [
        {
          "internalType": "bool",
          "name": "",
          "type": "bool"
        }
      ],
      "stateMutability": "nonpayable",
      "type": "function"
    }
  ],
  "transactionHash": "0xbf6b7dd50bef88fe6a6c08273ef1e72dd8d44df13c4e33e676fe4c2e4e77513d",
  "args": [
    "Hello DAO Token",
    "HDT"
  ],
  "numDeployments": 1,
  "solcInputHash": "9afca9f53c178926d1f5040d041cfd0c",
  "bytecode": "0x6101606040527f6e71edae12b1b97f4d1f60370fef10105fa2faae0126114a169c64845d6126c96101409081525069d3c21bcecceda10000006009553480156200004857600080fd5b5060405162004ba438038062004ba483398181016040528101906200006e919062000d5c565b81806040518060400160405280600181526020017f310000000000000000000000000000000000000000000000000000000000000081525084848160039080519060200190620000c092919062000b0f565b508060049080519060200190620000d992919062000b0f565b50505060008280519060200120905060008280519060200120905060007f8b73c3c69bb8fe3d512ecc4cf759cc79239f7b179b0ffacaa9a75d522b39400f90508260e081815250508161010081815250504660a0818152505062000145818484620001ab60201b60201c565b608081815250503073ffffffffffffffffffffffffffffffffffffffff1660c08173ffffffffffffffffffffffffffffffffffffffff1681525050806101208181525050505050505050620001a333600954620001e760201b60201c565b5050620012a9565b60008383834630604051602001620001c895949392919062000e5c565b6040516020818303038152906040528051906020012090509392505050565b620001fe82826200020260201b620010521760201c565b5050565b620002198282620002c060201b620010df1760201c565b620002296200043960201b60201c565b7bffffffffffffffffffffffffffffffffffffffffffffffffffffffff16620002576200045d60201b60201c565b11156200029b576040517f08c379a0000000000000000000000000000000000000000000000000000000008152600401620002929062000f40565b60405180910390fd5b620002ba60086200046760201b6200123f17836200047f60201b60201c565b50505050565b600073ffffffffffffffffffffffffffffffffffffffff168273ffffffffffffffffffffffffffffffffffffffff16141562000333576040517f08c379a00000000000000000000000000000000000000000000000000000000081526004016200032a9062000fb2565b60405180910390fd5b62000347600083836200073060201b60201c565b80600260008282546200035b919062001003565b92505081905550806000808473ffffffffffffffffffffffffffffffffffffffff1673ffffffffffffffffffffffffffffffffffffffff1681526020019081526020016000206000828254620003b2919062001003565b925050819055508173ffffffffffffffffffffffffffffffffffffffff16600073ffffffffffffffffffffffffffffffffffffffff167fddf252ad1be2c89b69c2b068fc378daa952ba7f163c4a11628f55a4df523b3ef8360405162000419919062001060565b60405180910390a362000435600083836200073560201b60201c565b5050565b60007bffffffffffffffffffffffffffffffffffffffffffffffffffffffff905090565b6000600254905090565b6000818362000477919062001003565b905092915050565b60008060008580549050905060008114620004f45785600182620004a491906200107d565b81548110620004b857620004b7620010b8565b5b9060005260206000200160000160049054906101000a90047bffffffffffffffffffffffffffffffffffffffffffffffffffffffff16620004f7565b60005b7bffffffffffffffffffffffffffffffffffffffffffffffffffffffff1692506200052383858760201c565b91506000811180156200057c575043866001836200054291906200107d565b81548110620005565762000555620010b8565b5b9060005260206000200160000160009054906101000a900463ffffffff1663ffffffff16145b156200061d5762000598826200075260201b620012551760201c565b86600183620005a891906200107d565b81548110620005bc57620005bb620010b8565b5b9060005260206000200160000160046101000a8154817bffffffffffffffffffffffffffffffffffffffffffffffffffffffff02191690837bffffffffffffffffffffffffffffffffffffffffffffffffffffffff16021790555062000727565b8560405180604001604052806200063f43620007c060201b620012c01760201c565b63ffffffff16815260200162000660856200075260201b620012551760201c565b7bffffffffffffffffffffffffffffffffffffffffffffffffffffffff168152509080600181540180825580915050600190039060005260206000200160009091909190915060008201518160000160006101000a81548163ffffffff021916908363ffffffff16021790555060208201518160000160046101000a8154817bffffffffffffffffffffffffffffffffffffffffffffffffffffffff02191690837bffffffffffffffffffffffffffffffffffffffffffffffffffffffff16021790555050505b50935093915050565b505050565b6200074d8383836200081660201b620013131760201c565b505050565b60007bffffffffffffffffffffffffffffffffffffffffffffffffffffffff8016821115620007b8576040517f08c379a0000000000000000000000000000000000000000000000000000000008152600401620007af906200115d565b60405180910390fd5b819050919050565b600063ffffffff80168211156200080e576040517f08c379a00000000000000000000000000000000000000000000000000000000081526004016200080590620011f5565b60405180910390fd5b819050919050565b6200082e8383836200086660201b6200133e1760201c565b6200086162000843846200086b60201b60201c565b62000854846200086b60201b60201c565b83620008d460201b60201c565b505050565b505050565b6000600660008373ffffffffffffffffffffffffffffffffffffffff1673ffffffffffffffffffffffffffffffffffffffff16815260200190815260200160002060009054906101000a900473ffffffffffffffffffffffffffffffffffffffff169050919050565b8173ffffffffffffffffffffffffffffffffffffffff168373ffffffffffffffffffffffffffffffffffffffff1614158015620009115750600081115b1562000af257600073ffffffffffffffffffffffffffffffffffffffff168373ffffffffffffffffffffffffffffffffffffffff161462000a0457600080620009ab600760008773ffffffffffffffffffffffffffffffffffffffff1673ffffffffffffffffffffffffffffffffffffffff16815260200190815260200160002062000af760201b6200134317856200047f60201b60201c565b915091508473ffffffffffffffffffffffffffffffffffffffff167fdec2bacdd2f05b59de34da9b523dff8be42e5e38e818c82fdb0bae774387a7248383604051620009f992919062001217565b60405180910390a250505b600073ffffffffffffffffffffffffffffffffffffffff168273ffffffffffffffffffffffffffffffffffffffff161462000af15760008062000a98600760008673ffffffffffffffffffffffffffffffffffffffff1673ffffffffffffffffffffffffffffffffffffffff1681526020019081526020016000206200046760201b6200123f17856200047f60201b60201c565b915091508373ffffffffffffffffffffffffffffffffffffffff167fdec2bacdd2f05b59de34da9b523dff8be42e5e38e818c82fdb0bae774387a724838360405162000ae692919062001217565b60405180910390a250505b5b505050565b6000818362000b0791906200107d565b905092915050565b82805462000b1d9062001273565b90600052602060002090601f01602090048101928262000b41576000855562000b8d565b82601f1062000b5c57805160ff191683800117855562000b8d565b8280016001018555821562000b8d579182015b8281111562000b8c57825182559160200191906001019062000b6f565b5b50905062000b9c919062000ba0565b5090565b5b8082111562000bbb57600081600090555060010162000ba1565b5090565b6000604051905090565b600080fd5b600080fd5b600080fd5b600080fd5b6000601f19601f8301169050919050565b7f4e487b7100000000000000000000000000000000000000000000000000000000600052604160045260246000fd5b62000c288262000bdd565b810181811067ffffffffffffffff8211171562000c4a5762000c4962000bee565b5b80604052505050565b600062000c5f62000bbf565b905062000c6d828262000c1d565b919050565b600067ffffffffffffffff82111562000c905762000c8f62000bee565b5b62000c9b8262000bdd565b9050602081019050919050565b60005b8381101562000cc857808201518184015260208101905062000cab565b8381111562000cd8576000848401525b50505050565b600062000cf562000cef8462000c72565b62000c53565b90508281526020810184848401111562000d145762000d1362000bd8565b5b62000d2184828562000ca8565b509392505050565b600082601f83011262000d415762000d4062000bd3565b5b815162000d5384826020860162000cde565b91505092915050565b6000806040838503121562000d765762000d7562000bc9565b5b600083015167ffffffffffffffff81111562000d975762000d9662000bce565b5b62000da58582860162000d29565b925050602083015167ffffffffffffffff81111562000dc95762000dc862000bce565b5b62000dd78582860162000d29565b9150509250929050565b6000819050919050565b62000df68162000de1565b82525050565b6000819050919050565b62000e118162000dfc565b82525050565b600073ffffffffffffffffffffffffffffffffffffffff82169050919050565b600062000e448262000e17565b9050919050565b62000e568162000e37565b82525050565b600060a08201905062000e73600083018862000deb565b62000e82602083018762000deb565b62000e91604083018662000deb565b62000ea0606083018562000e06565b62000eaf608083018462000e4b565b9695505050505050565b600082825260208201905092915050565b7f4552433230566f7465733a20746f74616c20737570706c79207269736b73206f60008201527f766572666c6f77696e6720766f74657300000000000000000000000000000000602082015250565b600062000f2860308362000eb9565b915062000f358262000eca565b604082019050919050565b6000602082019050818103600083015262000f5b8162000f19565b9050919050565b7f45524332303a206d696e7420746f20746865207a65726f206164647265737300600082015250565b600062000f9a601f8362000eb9565b915062000fa78262000f62565b602082019050919050565b6000602082019050818103600083015262000fcd8162000f8b565b9050919050565b7f4e487b7100000000000000000000000000000000000000000000000000000000600052601160045260246000fd5b6000620010108262000dfc565b91506200101d8362000dfc565b9250827fffffffffffffffffffffffffffffffffffffffffffffffffffffffffffffffff0382111562001055576200105462000fd4565b5b828201905092915050565b600060208201905062001077600083018462000e06565b92915050565b60006200108a8262000dfc565b9150620010978362000dfc565b925082821015620010ad57620010ac62000fd4565b5b828203905092915050565b7f4e487b7100000000000000000000000000000000000000000000000000000000600052603260045260246000fd5b7f53616665436173743a2076616c756520646f65736e27742066697420696e203260008201527f3234206269747300000000000000000000000000000000000000000000000000602082015250565b60006200114560278362000eb9565b91506200115282620010e7565b604082019050919050565b60006020820190508181036000830152620011788162001136565b9050919050565b7f53616665436173743a2076616c756520646f65736e27742066697420696e203360008201527f3220626974730000000000000000000000000000000000000000000000000000602082015250565b6000620011dd60268362000eb9565b9150620011ea826200117f565b604082019050919050565b600060208201905081810360008301526200121081620011ce565b9050919050565b60006040820190506200122e600083018562000e06565b6200123d602083018462000e06565b9392505050565b7f4e487b7100000000000000000000000000000000000000000000000000000000600052602260045260246000fd5b600060028204905060018216806200128c57607f821691505b60208210811415620012a357620012a262001244565b5b50919050565b60805160a05160c05160e0516101005161012051610140516138a0620013046000396000610dc00152600061185b0152600061189d0152600061187c015260006117b1015260006118070152600061183001526138a06000f3fe608060405234801561001057600080fd5b506004361061014d5760003560e01c80636fcfff45116100c3578063a457c2d71161007c578063a457c2d714610402578063a9059cbb14610432578063c3cda52014610462578063d505accf1461047e578063dd62ed3e1461049a578063f1127ed8146104ca5761014d565b80636fcfff45146102f457806370a08231146103245780637ecebe00146103545780638e539e8c1461038457806395d89b41146103b45780639ab24eb0146103d25761014d565b80633644e515116101155780633644e5151461020c578063395093511461022a5780633a46b1a81461025a578063587cde1e1461028a5780635c19a95c146102ba5780635d641847146102d65761014d565b806306fdde0314610152578063095ea7b31461017057806318160ddd146101a057806323b872dd146101be578063313ce567146101ee575b600080fd5b61015a6104fa565b60405161016791906124aa565b60405180910390f35b61018a60048036038101906101859190612565565b61058c565b60405161019791906125c0565b60405180910390f35b6101a86105aa565b6040516101b591906125ea565b60405180910390f35b6101d860048036038101906101d39190612605565b6105b4565b6040516101e591906125c0565b60405180910390f35b6101f66106ac565b6040516102039190612674565b60405180910390f35b6102146106b5565b60405161022191906126a8565b60405180910390f35b610244600480360381019061023f9190612565565b6106c4565b60405161025191906125c0565b60405180910390f35b610274600480360381019061026f9190612565565b610770565b60405161028191906125ea565b60405180910390f35b6102a4600480360381019061029f91906126c3565b610804565b6040516102b191906126ff565b60405180910390f35b6102d460048036038101906102cf91906126c3565b61086d565b005b6102de610881565b6040516102eb91906125ea565b60405180910390f35b61030e600480360381019061030991906126c3565b610887565b60405161031b9190612739565b60405180910390f35b61033e600480360381019061033991906126c3565b6108db565b60405161034b91906125ea565b60405180910390f35b61036e600480360381019061036991906126c3565b610923565b60405161037b91906125ea565b60405180910390f35b61039e60048036038101906103999190612754565b610973565b6040516103ab91906125ea565b60405180910390f35b6103bc6109c9565b6040516103c991906124aa565b60405180910390f35b6103ec60048036038101906103e791906126c3565b610a5b565b6040516103f991906125ea565b60405180910390f35b61041c60048036038101906104179190612565565b610b6c565b60405161042991906125c0565b60405180910390f35b61044c60048036038101906104479190612565565b610c57565b60405161045991906125c0565b60405180910390f35b61047c600480360381019061047791906127d9565b610c75565b005b61049860048036038101906104939190612866565b610d79565b005b6104b460048036038101906104af9190612908565b610ebb565b6040516104c191906125ea565b60405180910390f35b6104e460048036038101906104df9190612974565b610f42565b6040516104f19190612a29565b60405180910390f35b60606003805461050990612a73565b80601f016020809104026020016040519081016040528092919081815260200182805461053590612a73565b80156105825780601f1061055757610100808354040283529160200191610582565b820191906000526020600020905b81548152906001019060200180831161056557829003601f168201915b5050505050905090565b60006105a0610599611359565b8484611361565b6001905092915050565b6000600254905090565b60006105c184848461152c565b6000600160008673ffffffffffffffffffffffffffffffffffffffff1673ffffffffffffffffffffffffffffffffffffffff168152602001908152602001600020600061060c611359565b73ffffffffffffffffffffffffffffffffffffffff1673ffffffffffffffffffffffffffffffffffffffff1681526020019081526020016000205490508281101561068c576040517f08c379a000000000000000000000000000000000000000000000000000000000815260040161068390612b17565b60405180910390fd5b6106a085610698611359565b858403611361565b60019150509392505050565b60006012905090565b60006106bf6117ad565b905090565b60006107666106d1611359565b8484600160006106df611359565b73ffffffffffffffffffffffffffffffffffffffff1673ffffffffffffffffffffffffffffffffffffffff16815260200190815260200160002060008873ffffffffffffffffffffffffffffffffffffffff1673ffffffffffffffffffffffffffffffffffffffff168152602001908152602001600020546107619190612b66565b611361565b6001905092915050565b60004382106107b4576040517f08c379a00000000000000000000000000000000000000000000000000000000081526004016107ab90612c08565b60405180910390fd5b6107fc600760008573ffffffffffffffffffffffffffffffffffffffff1673ffffffffffffffffffffffffffffffffffffffff168152602001908152602001600020836118c7565b905092915050565b6000600660008373ffffffffffffffffffffffffffffffffffffffff1673ffffffffffffffffffffffffffffffffffffffff16815260200190815260200160002060009054906101000a900473ffffffffffffffffffffffffffffffffffffffff169050919050565b61087e610878611359565b826119d3565b50565b60095481565b60006108d4600760008473ffffffffffffffffffffffffffffffffffffffff1673ffffffffffffffffffffffffffffffffffffffff168152602001908152602001600020805490506112c0565b9050919050565b60008060008373ffffffffffffffffffffffffffffffffffffffff1673ffffffffffffffffffffffffffffffffffffffff168152602001908152602001600020549050919050565b600061096c600560008473ffffffffffffffffffffffffffffffffffffffff1673ffffffffffffffffffffffffffffffffffffffff168152602001908152602001600020611aed565b9050919050565b60004382106109b7576040517f08c379a00000000000000000000000000000000000000000000000000000000081526004016109ae90612c08565b60405180910390fd5b6109c26008836118c7565b9050919050565b6060600480546109d890612a73565b80601f0160208091040260200160405190810160405280929190818152602001828054610a0490612a73565b8015610a515780601f10610a2657610100808354040283529160200191610a51565b820191906000526020600020905b815481529060010190602001808311610a3457829003601f168201915b5050505050905090565b600080600760008473ffffffffffffffffffffffffffffffffffffffff1673ffffffffffffffffffffffffffffffffffffffff16815260200190815260200160002080549050905060008114610b4357600760008473ffffffffffffffffffffffffffffffffffffffff1673ffffffffffffffffffffffffffffffffffffffff168152602001908152602001600020600182610af79190612c28565b81548110610b0857610b07612c5c565b5b9060005260206000200160000160049054906101000a90047bffffffffffffffffffffffffffffffffffffffffffffffffffffffff16610b46565b60005b7bffffffffffffffffffffffffffffffffffffffffffffffffffffffff16915050919050565b60008060016000610b7b611359565b73ffffffffffffffffffffffffffffffffffffffff1673ffffffffffffffffffffffffffffffffffffffff16815260200190815260200160002060008573ffffffffffffffffffffffffffffffffffffffff1673ffffffffffffffffffffffffffffffffffffffff16815260200190815260200160002054905082811015610c38576040517f08c379a0000000000000000000000000000000000000000000000000000000008152600401610c2f90612cfd565b60405180910390fd5b610c4c610c43611359565b85858403611361565b600191505092915050565b6000610c6b610c64611359565b848461152c565b6001905092915050565b83421115610cb8576040517f08c379a0000000000000000000000000000000000000000000000000000000008152600401610caf90612d69565b60405180910390fd5b6000610d1a610d127fe48329057bfd03d55e49b547132e39cffd9c1820ad7b9d4c5307691425d15adf898989604051602001610cf79493929190612d89565b60405160208183030381529060405280519060200120611afb565b858585611b15565b9050610d2581611b40565b8614610d66576040517f08c379a0000000000000000000000000000000000000000000000000000000008152600401610d5d90612e1a565b60405180910390fd5b610d7081886119d3565b50505050505050565b83421115610dbc576040517f08c379a0000000000000000000000000000000000000000000000000000000008152600401610db390612e86565b60405180910390fd5b60007f0000000000000000000000000000000000000000000000000000000000000000888888610deb8c611b40565b89604051602001610e0196959493929190612ea6565b6040516020818303038152906040528051906020012090506000610e2482611afb565b90506000610e3482878787611b15565b90508973ffffffffffffffffffffffffffffffffffffffff168173ffffffffffffffffffffffffffffffffffffffff1614610ea4576040517f08c379a0000000000000000000000000000000000000000000000000000000008152600401610e9b90612f53565b60405180910390fd5b610eaf8a8a8a611361565b50505050505050505050565b6000600160008473ffffffffffffffffffffffffffffffffffffffff1673ffffffffffffffffffffffffffffffffffffffff16815260200190815260200160002060008373ffffffffffffffffffffffffffffffffffffffff1673ffffffffffffffffffffffffffffffffffffffff16815260200190815260200160002054905092915050565b610f4a6123d3565b600760008473ffffffffffffffffffffffffffffffffffffffff1673ffffffffffffffffffffffffffffffffffffffff1681526020019081526020016000208263ffffffff1681548110610fa157610fa0612c5c565b5b906000526020600020016040518060400160405290816000820160009054906101000a900463ffffffff1663ffffffff1663ffffffff1681526020016000820160049054906101000a90047bffffffffffffffffffffffffffffffffffffffffffffffffffffffff167bffffffffffffffffffffffffffffffffffffffffffffffffffffffff167bffffffffffffffffffffffffffffffffffffffffffffffffffffffff1681525050905092915050565b61105c82826110df565b611064611b9e565b7bffffffffffffffffffffffffffffffffffffffffffffffffffffffff1661108a6105aa565b11156110cb576040517f08c379a00000000000000000000000000000000000000000000000000000000081526004016110c290612fe5565b60405180910390fd5b6110d9600861123f83611bc2565b50505050565b600073ffffffffffffffffffffffffffffffffffffffff168273ffffffffffffffffffffffffffffffffffffffff16141561114f576040517f08c379a000000000000000000000000000000000000000000000000000000000815260040161114690613051565b60405180910390fd5b61115b60008383611e3a565b806002600082825461116d9190612b66565b92505081905550806000808473ffffffffffffffffffffffffffffffffffffffff1673ffffffffffffffffffffffffffffffffffffffff16815260200190815260200160002060008282546111c29190612b66565b925050819055508173ffffffffffffffffffffffffffffffffffffffff16600073ffffffffffffffffffffffffffffffffffffffff167fddf252ad1be2c89b69c2b068fc378daa952ba7f163c4a11628f55a4df523b3ef8360405161122791906125ea565b60405180910390a361123b60008383611e3f565b5050565b6000818361124d9190612b66565b905092915050565b60007bffffffffffffffffffffffffffffffffffffffffffffffffffffffff80168211156112b8576040517f08c379a00000000000000000000000000000000000000000000000000000000081526004016112af906130e3565b60405180910390fd5b819050919050565b600063ffffffff801682111561130b576040517f08c379a000000000000000000000000000000000000000000000000000000000815260040161130290613175565b60405180910390fd5b819050919050565b61131e83838361133e565b61133961132a84610804565b61133384610804565b83611e4f565b505050565b505050565b600081836113519190612c28565b905092915050565b600033905090565b600073ffffffffffffffffffffffffffffffffffffffff168373ffffffffffffffffffffffffffffffffffffffff1614156113d1576040517f08c379a00000000000000000000000000000000000000000000000000000000081526004016113c890613207565b60405180910390fd5b600073ffffffffffffffffffffffffffffffffffffffff168273ffffffffffffffffffffffffffffffffffffffff161415611441576040517f08c379a000000000000000000000000000000000000000000000000000000000815260040161143890613299565b60405180910390fd5b80600160008573ffffffffffffffffffffffffffffffffffffffff1673ffffffffffffffffffffffffffffffffffffffff16815260200190815260200160002060008473ffffffffffffffffffffffffffffffffffffffff1673ffffffffffffffffffffffffffffffffffffffff168152602001908152602001600020819055508173ffffffffffffffffffffffffffffffffffffffff168373ffffffffffffffffffffffffffffffffffffffff167f8c5be1e5ebec7d5bd14f71427d1e84f3dd0314c0f7b2291e5b200ac8c7c3b9258360405161151f91906125ea565b60405180910390a3505050565b600073ffffffffffffffffffffffffffffffffffffffff168373ffffffffffffffffffffffffffffffffffffffff16141561159c576040517f08c379a00000000000000000000000000000000000000000000000000000000081526004016115939061332b565b60405180910390fd5b600073ffffffffffffffffffffffffffffffffffffffff168273ffffffffffffffffffffffffffffffffffffffff16141561160c576040517f08c379a0000000000000000000000000000000000000000000000000000000008152600401611603906133bd565b60405180910390fd5b611617838383611e3a565b60008060008573ffffffffffffffffffffffffffffffffffffffff1673ffffffffffffffffffffffffffffffffffffffff1681526020019081526020016000205490508181101561169d576040517f08c379a00000000000000000000000000000000000000000000000000000000081526004016116949061344f565b60405180910390fd5b8181036000808673ffffffffffffffffffffffffffffffffffffffff1673ffffffffffffffffffffffffffffffffffffffff16815260200190815260200160002081905550816000808573ffffffffffffffffffffffffffffffffffffffff1673ffffffffffffffffffffffffffffffffffffffff16815260200190815260200160002060008282546117309190612b66565b925050819055508273ffffffffffffffffffffffffffffffffffffffff168473ffffffffffffffffffffffffffffffffffffffff167fddf252ad1be2c89b69c2b068fc378daa952ba7f163c4a11628f55a4df523b3ef8460405161179491906125ea565b60405180910390a36117a7848484611e3f565b50505050565b60007f000000000000000000000000000000000000000000000000000000000000000073ffffffffffffffffffffffffffffffffffffffff163073ffffffffffffffffffffffffffffffffffffffff1614801561182957507f000000000000000000000000000000000000000000000000000000000000000046145b15611856577f000000000000000000000000000000000000000000000000000000000000000090506118c4565b6118c17f00000000000000000000000000000000000000000000000000000000000000007f00000000000000000000000000000000000000000000000000000000000000007f0000000000000000000000000000000000000000000000000000000000000000612048565b90505b90565b6000808380549050905060005b818110156119465760006118e88284612082565b9050848682815481106118fe576118fd612c5c565b5b9060005260206000200160000160009054906101000a900463ffffffff1663ffffffff16111561193057809250611940565b60018161193d9190612b66565b91505b506118d4565b600082146119a8578460018361195c9190612c28565b8154811061196d5761196c612c5c565b5b9060005260206000200160000160049054906101000a90047bffffffffffffffffffffffffffffffffffffffffffffffffffffffff166119ab565b60005b7bffffffffffffffffffffffffffffffffffffffffffffffffffffffff169250505092915050565b60006119de83610804565b905060006119eb846108db565b905082600660008673ffffffffffffffffffffffffffffffffffffffff1673ffffffffffffffffffffffffffffffffffffffff16815260200190815260200160002060006101000a81548173ffffffffffffffffffffffffffffffffffffffff021916908373ffffffffffffffffffffffffffffffffffffffff1602179055508273ffffffffffffffffffffffffffffffffffffffff168273ffffffffffffffffffffffffffffffffffffffff168573ffffffffffffffffffffffffffffffffffffffff167f3134e8a2e6d97e929a7e54011ea5485d7d196dd5f0ba4d4ef95803e8e3fc257f60405160405180910390a4611ae7828483611e4f565b50505050565b600081600001549050919050565b6000611b0e611b086117ad565b836120a8565b9050919050565b6000806000611b26878787876120db565b91509150611b33816121e8565b8192505050949350505050565b600080600560008473ffffffffffffffffffffffffffffffffffffffff1673ffffffffffffffffffffffffffffffffffffffff1681526020019081526020016000209050611b8d81611aed565b9150611b98816123bd565b50919050565b60007bffffffffffffffffffffffffffffffffffffffffffffffffffffffff905090565b60008060008580549050905060008114611c305785600182611be49190612c28565b81548110611bf557611bf4612c5c565b5b9060005260206000200160000160049054906101000a90047bffffffffffffffffffffffffffffffffffffffffffffffffffffffff16611c33565b60005b7bffffffffffffffffffffffffffffffffffffffffffffffffffffffff169250611c6183858763ffffffff16565b9150600081118015611cb457504386600183611c7d9190612c28565b81548110611c8e57611c8d612c5c565b5b9060005260206000200160000160009054906101000a900463ffffffff1663ffffffff16145b15611d4157611cc282611255565b86600183611cd09190612c28565b81548110611ce157611ce0612c5c565b5b9060005260206000200160000160046101000a8154817bffffffffffffffffffffffffffffffffffffffffffffffffffffffff02191690837bffffffffffffffffffffffffffffffffffffffffffffffffffffffff160217905550611e31565b856040518060400160405280611d56436112c0565b63ffffffff168152602001611d6a85611255565b7bffffffffffffffffffffffffffffffffffffffffffffffffffffffff168152509080600181540180825580915050600190039060005260206000200160009091909190915060008201518160000160006101000a81548163ffffffff021916908363ffffffff16021790555060208201518160000160046101000a8154817bffffffffffffffffffffffffffffffffffffffffffffffffffffffff02191690837bffffffffffffffffffffffffffffffffffffffffffffffffffffffff16021790555050505b50935093915050565b505050565b611e4a838383611313565b505050565b8173ffffffffffffffffffffffffffffffffffffffff168373ffffffffffffffffffffffffffffffffffffffff1614158015611e8b5750600081115b1561204357600073ffffffffffffffffffffffffffffffffffffffff168373ffffffffffffffffffffffffffffffffffffffff1614611f6957600080611f12600760008773ffffffffffffffffffffffffffffffffffffffff1673ffffffffffffffffffffffffffffffffffffffff16815260200190815260200160002061134385611bc2565b915091508473ffffffffffffffffffffffffffffffffffffffff167fdec2bacdd2f05b59de34da9b523dff8be42e5e38e818c82fdb0bae774387a7248383604051611f5e92919061346f565b60405180910390a250505b600073ffffffffffffffffffffffffffffffffffffffff168273ffffffffffffffffffffffffffffffffffffffff161461204257600080611feb600760008673ffffffffffffffffffffffffffffffffffffffff1673ffffffffffffffffffffffffffffffffffffffff16815260200190815260200160002061123f85611bc2565b915091508373ffffffffffffffffffffffffffffffffffffffff167fdec2bacdd2f05b59de34da9b523dff8be42e5e38e818c82fdb0bae774387a724838360405161203792919061346f565b60405180910390a250505b5b505050565b60008383834630604051602001612063959493929190613498565b6040516020818303038152906040528051906020012090509392505050565b60006002828418612093919061351a565b8284166120a09190612b66565b905092915050565b600082826040516020016120bd9291906135c3565b60405160208183030381529060405280519060200120905092915050565b6000807f7fffffffffffffffffffffffffffffff5d576e7357a4501ddfe92f46681b20a08360001c11156121165760006003915091506121df565b601b8560ff161415801561212e5750601c8560ff1614155b156121405760006004915091506121df565b60006001878787876040516000815260200160405260405161216594939291906135fa565b6020604051602081039080840390855afa158015612187573d6000803e3d6000fd5b505050602060405103519050600073ffffffffffffffffffffffffffffffffffffffff168173ffffffffffffffffffffffffffffffffffffffff1614156121d6576000600192509250506121df565b80600092509250505b94509492505050565b600060048111156121fc576121fb61363f565b5b81600481111561220f5761220e61363f565b5b141561221a576123ba565b6001600481111561222e5761222d61363f565b5b8160048111156122415761224061363f565b5b1415612282576040517f08c379a0000000000000000000000000000000000000000000000000000000008152600401612279906136ba565b60405180910390fd5b600260048111156122965761229561363f565b5b8160048111156122a9576122a861363f565b5b14156122ea576040517f08c379a00000000000000000000000000000000000000000000000000000000081526004016122e190613726565b60405180910390fd5b600360048111156122fe576122fd61363f565b5b8160048111156123115761231061363f565b5b1415612352576040517f08c379a0000000000000000000000000000000000000000000000000000000008152600401612349906137b8565b60405180910390fd5b6004808111156123655761236461363f565b5b8160048111156123785761237761363f565b5b14156123b9576040517f08c379a00000000000000000000000000000000000000000000000000000000081526004016123b09061384a565b60405180910390fd5b5b50565b6001816000016000828254019250508190555050565b6040518060400160405280600063ffffffff16815260200160007bffffffffffffffffffffffffffffffffffffffffffffffffffffffff1681525090565b600081519050919050565b600082825260208201905092915050565b60005b8381101561244b578082015181840152602081019050612430565b8381111561245a576000848401525b50505050565b6000601f19601f8301169050919050565b600061247c82612411565b612486818561241c565b935061249681856020860161242d565b61249f81612460565b840191505092915050565b600060208201905081810360008301526124c48184612471565b905092915050565b600080fd5b600073ffffffffffffffffffffffffffffffffffffffff82169050919050565b60006124fc826124d1565b9050919050565b61250c816124f1565b811461251757600080fd5b50565b60008135905061252981612503565b92915050565b6000819050919050565b6125428161252f565b811461254d57600080fd5b50565b60008135905061255f81612539565b92915050565b6000806040838503121561257c5761257b6124cc565b5b600061258a8582860161251a565b925050602061259b85828601612550565b9150509250929050565b60008115159050919050565b6125ba816125a5565b82525050565b60006020820190506125d560008301846125b1565b92915050565b6125e48161252f565b82525050565b60006020820190506125ff60008301846125db565b92915050565b60008060006060848603121561261e5761261d6124cc565b5b600061262c8682870161251a565b935050602061263d8682870161251a565b925050604061264e86828701612550565b9150509250925092565b600060ff82169050919050565b61266e81612658565b82525050565b60006020820190506126896000830184612665565b92915050565b6000819050919050565b6126a28161268f565b82525050565b60006020820190506126bd6000830184612699565b92915050565b6000602082840312156126d9576126d86124cc565b5b60006126e78482850161251a565b91505092915050565b6126f9816124f1565b82525050565b600060208201905061271460008301846126f0565b92915050565b600063ffffffff82169050919050565b6127338161271a565b82525050565b600060208201905061274e600083018461272a565b92915050565b60006020828403121561276a576127696124cc565b5b600061277884828501612550565b91505092915050565b61278a81612658565b811461279557600080fd5b50565b6000813590506127a781612781565b92915050565b6127b68161268f565b81146127c157600080fd5b50565b6000813590506127d3816127ad565b92915050565b60008060008060008060c087890312156127f6576127f56124cc565b5b600061280489828a0161251a565b965050602061281589828a01612550565b955050604061282689828a01612550565b945050606061283789828a01612798565b935050608061284889828a016127c4565b92505060a061285989828a016127c4565b9150509295509295509295565b600080600080600080600060e0888a031215612885576128846124cc565b5b60006128938a828b0161251a565b97505060206128a48a828b0161251a565b96505060406128b58a828b01612550565b95505060606128c68a828b01612550565b94505060806128d78a828b01612798565b93505060a06128e88a828b016127c4565b92505060c06128f98a828b016127c4565b91505092959891949750929550565b6000806040838503121561291f5761291e6124cc565b5b600061292d8582860161251a565b925050602061293e8582860161251a565b9150509250929050565b6129518161271a565b811461295c57600080fd5b50565b60008135905061296e81612948565b92915050565b6000806040838503121561298b5761298a6124cc565b5b60006129998582860161251a565b92505060206129aa8582860161295f565b9150509250929050565b6129bd8161271a565b82525050565b60007bffffffffffffffffffffffffffffffffffffffffffffffffffffffff82169050919050565b6129f4816129c3565b82525050565b604082016000820151612a1060008501826129b4565b506020820151612a2360208501826129eb565b50505050565b6000604082019050612a3e60008301846129fa565b92915050565b7f4e487b7100000000000000000000000000000000000000000000000000000000600052602260045260246000fd5b60006002820490506001821680612a8b57607f821691505b60208210811415612a9f57612a9e612a44565b5b50919050565b7f45524332303a207472616e7366657220616d6f756e742065786365656473206160008201527f6c6c6f77616e6365000000000000000000000000000000000000000000000000602082015250565b6000612b0160288361241c565b9150612b0c82612aa5565b604082019050919050565b60006020820190508181036000830152612b3081612af4565b9050919050565b7f4e487b7100000000000000000000000000000000000000000000000000000000600052601160045260246000fd5b6000612b718261252f565b9150612b7c8361252f565b9250827fffffffffffffffffffffffffffffffffffffffffffffffffffffffffffffffff03821115612bb157612bb0612b37565b5b828201905092915050565b7f4552433230566f7465733a20626c6f636b206e6f7420796574206d696e656400600082015250565b6000612bf2601f8361241c565b9150612bfd82612bbc565b602082019050919050565b60006020820190508181036000830152612c2181612be5565b9050919050565b6000612c338261252f565b9150612c3e8361252f565b925082821015612c5157612c50612b37565b5b828203905092915050565b7f4e487b7100000000000000000000000000000000000000000000000000000000600052603260045260246000fd5b7f45524332303a2064656372656173656420616c6c6f77616e63652062656c6f7760008201527f207a65726f000000000000000000000000000000000000000000000000000000602082015250565b6000612ce760258361241c565b9150612cf282612c8b565b604082019050919050565b60006020820190508181036000830152612d1681612cda565b9050919050565b7f4552433230566f7465733a207369676e61747572652065787069726564000000600082015250565b6000612d53601d8361241c565b9150612d5e82612d1d565b602082019050919050565b60006020820190508181036000830152612d8281612d46565b9050919050565b6000608082019050612d9e6000830187612699565b612dab60208301866126f0565b612db860408301856125db565b612dc560608301846125db565b95945050505050565b7f4552433230566f7465733a20696e76616c6964206e6f6e636500000000000000600082015250565b6000612e0460198361241c565b9150612e0f82612dce565b602082019050919050565b60006020820190508181036000830152612e3381612df7565b9050919050565b7f45524332305065726d69743a206578706972656420646561646c696e65000000600082015250565b6000612e70601d8361241c565b9150612e7b82612e3a565b602082019050919050565b60006020820190508181036000830152612e9f81612e63565b9050919050565b600060c082019050612ebb6000830189612699565b612ec860208301886126f0565b612ed560408301876126f0565b612ee260608301866125db565b612eef60808301856125db565b612efc60a08301846125db565b979650505050505050565b7f45524332305065726d69743a20696e76616c6964207369676e61747572650000600082015250565b6000612f3d601e8361241c565b9150612f4882612f07565b602082019050919050565b60006020820190508181036000830152612f6c81612f30565b9050919050565b7f4552433230566f7465733a20746f74616c20737570706c79207269736b73206f60008201527f766572666c6f77696e6720766f74657300000000000000000000000000000000602082015250565b6000612fcf60308361241c565b9150612fda82612f73565b604082019050919050565b60006020820190508181036000830152612ffe81612fc2565b9050919050565b7f45524332303a206d696e7420746f20746865207a65726f206164647265737300600082015250565b600061303b601f8361241c565b915061304682613005565b602082019050919050565b6000602082019050818103600083015261306a8161302e565b9050919050565b7f53616665436173743a2076616c756520646f65736e27742066697420696e203260008201527f3234206269747300000000000000000000000000000000000000000000000000602082015250565b60006130cd60278361241c565b91506130d882613071565b604082019050919050565b600060208201905081810360008301526130fc816130c0565b9050919050565b7f53616665436173743a2076616c756520646f65736e27742066697420696e203360008201527f3220626974730000000000000000000000000000000000000000000000000000602082015250565b600061315f60268361241c565b915061316a82613103565b604082019050919050565b6000602082019050818103600083015261318e81613152565b9050919050565b7f45524332303a20617070726f76652066726f6d20746865207a65726f2061646460008201527f7265737300000000000000000000000000000000000000000000000000000000602082015250565b60006131f160248361241c565b91506131fc82613195565b604082019050919050565b60006020820190508181036000830152613220816131e4565b9050919050565b7f45524332303a20617070726f766520746f20746865207a65726f20616464726560008201527f7373000000000000000000000000000000000000000000000000000000000000602082015250565b600061328360228361241c565b915061328e82613227565b604082019050919050565b600060208201905081810360008301526132b281613276565b9050919050565b7f45524332303a207472616e736665722066726f6d20746865207a65726f20616460008201527f6472657373000000000000000000000000000000000000000000000000000000602082015250565b600061331560258361241c565b9150613320826132b9565b604082019050919050565b6000602082019050818103600083015261334481613308565b9050919050565b7f45524332303a207472616e7366657220746f20746865207a65726f206164647260008201527f6573730000000000000000000000000000000000000000000000000000000000602082015250565b60006133a760238361241c565b91506133b28261334b565b604082019050919050565b600060208201905081810360008301526133d68161339a565b9050919050565b7f45524332303a207472616e7366657220616d6f756e742065786365656473206260008201527f616c616e63650000000000000000000000000000000000000000000000000000602082015250565b600061343960268361241c565b9150613444826133dd565b604082019050919050565b600060208201905081810360008301526134688161342c565b9050919050565b600060408201905061348460008301856125db565b61349160208301846125db565b9392505050565b600060a0820190506134ad6000830188612699565b6134ba6020830187612699565b6134c76040830186612699565b6134d460608301856125db565b6134e160808301846126f0565b9695505050505050565b7f4e487b7100000000000000000000000000000000000000000000000000000000600052601260045260246000fd5b60006135258261252f565b91506135308361252f565b9250826135405761353f6134eb565b5b828204905092915050565b600081905092915050565b7f1901000000000000000000000000000000000000000000000000000000000000600082015250565b600061358c60028361354b565b915061359782613556565b600282019050919050565b6000819050919050565b6135bd6135b88261268f565b6135a2565b82525050565b60006135ce8261357f565b91506135da82856135ac565b6020820191506135ea82846135ac565b6020820191508190509392505050565b600060808201905061360f6000830187612699565b61361c6020830186612665565b6136296040830185612699565b6136366060830184612699565b95945050505050565b7f4e487b7100000000000000000000000000000000000000000000000000000000600052602160045260246000fd5b7f45434453413a20696e76616c6964207369676e61747572650000000000000000600082015250565b60006136a460188361241c565b91506136af8261366e565b602082019050919050565b600060208201905081810360008301526136d381613697565b9050919050565b7f45434453413a20696e76616c6964207369676e6174757265206c656e67746800600082015250565b6000613710601f8361241c565b915061371b826136da565b602082019050919050565b6000602082019050818103600083015261373f81613703565b9050919050565b7f45434453413a20696e76616c6964207369676e6174757265202773272076616c60008201527f7565000000000000000000000000000000000000000000000000000000000000602082015250565b60006137a260228361241c565b91506137ad82613746565b604082019050919050565b600060208201905081810360008301526137d181613795565b9050919050565b7f45434453413a20696e76616c6964207369676e6174757265202776272076616c60008201527f7565000000000000000000000000000000000000000000000000000000000000602082015250565b600061383460228361241c565b915061383f826137d8565b604082019050919050565b6000602082019050818103600083015261386381613827565b905091905056fea2646970667358221220cc30b90cb6a68d91136298dfd58f25b22c8822de354b32d7737d39b5bcc42a9164736f6c63430008090033",
  "devdoc": {
    "kind": "dev",
    "methods": {
      "DOMAIN_SEPARATOR()": {
        "details": "See {IERC20Permit-DOMAIN_SEPARATOR}."
      },
      "allowance(address,address)": {
        "details": "See {IERC20-allowance}."
      },
      "approve(address,uint256)": {
        "details": "See {IERC20-approve}. Requirements: - `spender` cannot be the zero address."
      },
      "balanceOf(address)": {
        "details": "See {IERC20-balanceOf}."
      },
      "checkpoints(address,uint32)": {
        "details": "Get the `pos`-th checkpoint for `account`."
      },
      "decimals()": {
        "details": "Returns the number of decimals used to get its user representation. For example, if `decimals` equals `2`, a balance of `505` tokens should be displayed to a user as `5.05` (`505 / 10 ** 2`). Tokens usually opt for a value of 18, imitating the relationship between Ether and Wei. This is the value {ERC20} uses, unless this function is overridden; NOTE: This information is only used for _display_ purposes: it in no way affects any of the arithmetic of the contract, including {IERC20-balanceOf} and {IERC20-transfer}."
      },
      "decreaseAllowance(address,uint256)": {
        "details": "Atomically decreases the allowance granted to `spender` by the caller. This is an alternative to {approve} that can be used as a mitigation for problems described in {IERC20-approve}. Emits an {Approval} event indicating the updated allowance. Requirements: - `spender` cannot be the zero address. - `spender` must have allowance for the caller of at least `subtractedValue`."
      },
      "delegate(address)": {
        "details": "Delegate votes from the sender to `delegatee`."
      },
      "delegateBySig(address,uint256,uint256,uint8,bytes32,bytes32)": {
        "details": "Delegates votes from signer to `delegatee`"
      },
      "delegates(address)": {
        "details": "Get the address `account` is currently delegating to."
      },
      "getPastTotalSupply(uint256)": {
        "details": "Retrieve the `totalSupply` at the end of `blockNumber`. Note, this value is the sum of all balances. It is but NOT the sum of all the delegated votes! Requirements: - `blockNumber` must have been already mined"
      },
      "getPastVotes(address,uint256)": {
        "details": "Retrieve the number of votes for `account` at the end of `blockNumber`. Requirements: - `blockNumber` must have been already mined"
      },
      "getVotes(address)": {
        "details": "Gets the current votes balance for `account`"
      },
      "increaseAllowance(address,uint256)": {
        "details": "Atomically increases the allowance granted to `spender` by the caller. This is an alternative to {approve} that can be used as a mitigation for problems described in {IERC20-approve}. Emits an {Approval} event indicating the updated allowance. Requirements: - `spender` cannot be the zero address."
      },
      "name()": {
        "details": "Returns the name of the token."
      },
      "nonces(address)": {
        "details": "See {IERC20Permit-nonces}."
      },
      "numCheckpoints(address)": {
        "details": "Get number of checkpoints for `account`."
      },
      "permit(address,address,uint256,uint256,uint8,bytes32,bytes32)": {
        "details": "See {IERC20Permit-permit}."
      },
      "symbol()": {
        "details": "Returns the symbol of the token, usually a shorter version of the name."
      },
      "totalSupply()": {
        "details": "See {IERC20-totalSupply}."
      },
      "transfer(address,uint256)": {
        "details": "See {IERC20-transfer}. Requirements: - `recipient` cannot be the zero address. - the caller must have a balance of at least `amount`."
      },
      "transferFrom(address,address,uint256)": {
        "details": "See {IERC20-transferFrom}. Emits an {Approval} event indicating the updated allowance. This is not required by the EIP. See the note at the beginning of {ERC20}. Requirements: - `sender` and `recipient` cannot be the zero address. - `sender` must have a balance of at least `amount`. - the caller must have allowance for ``sender``'s tokens of at least `amount`."
      }
    },
    "version": 1
  },
  "userdoc": {
    "kind": "user",
    "methods": {},
    "version": 1
  },
  "storageLayout": {
    "storage": [
      {
        "astId": 3119,
        "contract": "contracts/DAOToken.sol:DAOToken",
        "label": "_balances",
        "offset": 0,
        "slot": "0",
        "type": "t_mapping(t_address,t_uint256)"
      },
      {
        "astId": 3125,
        "contract": "contracts/DAOToken.sol:DAOToken",
        "label": "_allowances",
        "offset": 0,
        "slot": "1",
        "type": "t_mapping(t_address,t_mapping(t_address,t_uint256))"
      },
      {
        "astId": 3127,
        "contract": "contracts/DAOToken.sol:DAOToken",
        "label": "_totalSupply",
        "offset": 0,
        "slot": "2",
        "type": "t_uint256"
      },
      {
        "astId": 3129,
        "contract": "contracts/DAOToken.sol:DAOToken",
        "label": "_name",
        "offset": 0,
        "slot": "3",
        "type": "t_string_storage"
      },
      {
        "astId": 3131,
        "contract": "contracts/DAOToken.sol:DAOToken",
        "label": "_symbol",
        "offset": 0,
        "slot": "4",
        "type": "t_string_storage"
      },
      {
        "astId": 4421,
        "contract": "contracts/DAOToken.sol:DAOToken",
        "label": "_nonces",
        "offset": 0,
        "slot": "5",
        "type": "t_mapping(t_address,t_struct(Counter)4928_storage)"
      },
      {
        "astId": 3750,
        "contract": "contracts/DAOToken.sol:DAOToken",
        "label": "_delegates",
        "offset": 0,
        "slot": "6",
        "type": "t_mapping(t_address,t_address)"
      },
      {
        "astId": 3756,
        "contract": "contracts/DAOToken.sol:DAOToken",
        "label": "_checkpoints",
        "offset": 0,
        "slot": "7",
        "type": "t_mapping(t_address,t_array(t_struct(Checkpoint)3741_storage)dyn_storage)"
      },
      {
        "astId": 3760,
        "contract": "contracts/DAOToken.sol:DAOToken",
        "label": "_totalSupplyCheckpoints",
        "offset": 0,
        "slot": "8",
        "type": "t_array(t_struct(Checkpoint)3741_storage)dyn_storage"
      },
      {
        "astId": 6784,
        "contract": "contracts/DAOToken.sol:DAOToken",
        "label": "s_maxSupply",
        "offset": 0,
        "slot": "9",
        "type": "t_uint256"
      }
    ],
    "types": {
      "t_address": {
        "encoding": "inplace",
        "label": "address",
        "numberOfBytes": "20"
      },
      "t_array(t_struct(Checkpoint)3741_storage)dyn_storage": {
        "base": "t_struct(Checkpoint)3741_storage",
        "encoding": "dynamic_array",
        "label": "struct ERC20Votes.Checkpoint[]",
        "numberOfBytes": "32"
      },
      "t_mapping(t_address,t_address)": {
        "encoding": "mapping",
        "key": "t_address",
        "label": "mapping(address => address)",
        "numberOfBytes": "32",
        "value": "t_address"
      },
      "t_mapping(t_address,t_array(t_struct(Checkpoint)3741_storage)dyn_storage)": {
        "encoding": "mapping",
        "key": "t_address",
        "label": "mapping(address => struct ERC20Votes.Checkpoint[])",
        "numberOfBytes": "32",
        "value": "t_array(t_struct(Checkpoint)3741_storage)dyn_storage"
      },
      "t_mapping(t_address,t_mapping(t_address,t_uint256))": {
        "encoding": "mapping",
        "key": "t_address",
        "label": "mapping(address => mapping(address => uint256))",
        "numberOfBytes": "32",
        "value": "t_mapping(t_address,t_uint256)"
      },
      "t_mapping(t_address,t_struct(Counter)4928_storage)": {
        "encoding": "mapping",
        "key": "t_address",
        "label": "mapping(address => struct Counters.Counter)",
        "numberOfBytes": "32",
        "value": "t_struct(Counter)4928_storage"
      },
      "t_mapping(t_address,t_uint256)": {
        "encoding": "mapping",
        "key": "t_address",
        "label": "mapping(address => uint256)",
        "numberOfBytes": "32",
        "value": "t_uint256"
      },
      "t_string_storage": {
        "encoding": "bytes",
        "label": "string",
        "numberOfBytes": "32"
      },
      "t_struct(Checkpoint)3741_storage": {
        "encoding": "inplace",
        "label": "struct ERC20Votes.Checkpoint",
        "members": [
          {
            "astId": 3738,
            "contract": "contracts/DAOToken.sol:DAOToken",
            "label": "fromBlock",
            "offset": 0,
            "slot": "0",
            "type": "t_uint32"
          },
          {
            "astId": 3740,
            "contract": "contracts/DAOToken.sol:DAOToken",
            "label": "votes",
            "offset": 4,
            "slot": "0",
            "type": "t_uint224"
          }
        ],
        "numberOfBytes": "32"
      },
      "t_struct(Counter)4928_storage": {
        "encoding": "inplace",
        "label": "struct Counters.Counter",
        "members": [
          {
            "astId": 4927,
            "contract": "contracts/DAOToken.sol:DAOToken",
            "label": "_value",
            "offset": 0,
            "slot": "0",
            "type": "t_uint256"
          }
        ],
        "numberOfBytes": "32"
      },
      "t_uint224": {
        "encoding": "inplace",
        "label": "uint224",
        "numberOfBytes": "28"
      },
      "t_uint256": {
        "encoding": "inplace",
        "label": "uint256",
        "numberOfBytes": "32"
      },
      "t_uint32": {
        "encoding": "inplace",
        "label": "uint32",
        "numberOfBytes": "4"
      }
    }
  }
}